{
  "contractName": "Eshterak",
  "abi": [
    {
      "inputs": [
        {
          "internalType": "string",
          "name": "name",
          "type": "string"
        },
        {
          "internalType": "string",
          "name": "symbol",
          "type": "string"
        },
        {
          "internalType": "string",
          "name": "uri",
          "type": "string"
        }
      ],
      "stateMutability": "nonpayable",
      "type": "constructor"
    },
    {
      "anonymous": false,
      "inputs": [
        {
          "indexed": true,
          "internalType": "address",
          "name": "account",
          "type": "address"
        },
        {
          "indexed": true,
          "internalType": "address",
          "name": "operator",
          "type": "address"
        },
        {
          "indexed": false,
          "internalType": "bool",
          "name": "approved",
          "type": "bool"
        }
      ],
      "name": "ApprovalForAll",
      "type": "event"
    },
    {
      "anonymous": false,
      "inputs": [
        {
          "indexed": true,
          "internalType": "address",
          "name": "previousOwner",
          "type": "address"
        },
        {
          "indexed": true,
          "internalType": "address",
          "name": "newOwner",
          "type": "address"
        }
      ],
      "name": "OwnershipTransferred",
      "type": "event"
    },
    {
      "anonymous": false,
      "inputs": [
        {
          "indexed": true,
          "internalType": "address",
          "name": "operator",
          "type": "address"
        },
        {
          "indexed": true,
          "internalType": "address",
          "name": "from",
          "type": "address"
        },
        {
          "indexed": true,
          "internalType": "address",
          "name": "to",
          "type": "address"
        },
        {
          "indexed": false,
          "internalType": "uint256[]",
          "name": "ids",
          "type": "uint256[]"
        },
        {
          "indexed": false,
          "internalType": "uint256[]",
          "name": "values",
          "type": "uint256[]"
        }
      ],
      "name": "TransferBatch",
      "type": "event"
    },
    {
      "anonymous": false,
      "inputs": [
        {
          "indexed": true,
          "internalType": "address",
          "name": "operator",
          "type": "address"
        },
        {
          "indexed": true,
          "internalType": "address",
          "name": "from",
          "type": "address"
        },
        {
          "indexed": true,
          "internalType": "address",
          "name": "to",
          "type": "address"
        },
        {
          "indexed": false,
          "internalType": "uint256",
          "name": "id",
          "type": "uint256"
        },
        {
          "indexed": false,
          "internalType": "uint256",
          "name": "value",
          "type": "uint256"
        }
      ],
      "name": "TransferSingle",
      "type": "event"
    },
    {
      "anonymous": false,
      "inputs": [
        {
          "indexed": false,
          "internalType": "string",
          "name": "value",
          "type": "string"
        },
        {
          "indexed": true,
          "internalType": "uint256",
          "name": "id",
          "type": "uint256"
        }
      ],
      "name": "URI",
      "type": "event"
    },
    {
      "inputs": [
        {
          "internalType": "address",
          "name": "account",
          "type": "address"
        },
        {
          "internalType": "uint256",
          "name": "id",
          "type": "uint256"
        }
      ],
      "name": "balanceOf",
      "outputs": [
        {
          "internalType": "uint256",
          "name": "",
          "type": "uint256"
        }
      ],
      "stateMutability": "view",
      "type": "function",
      "constant": true
    },
    {
      "inputs": [
        {
          "internalType": "address[]",
          "name": "accounts",
          "type": "address[]"
        },
        {
          "internalType": "uint256[]",
          "name": "ids",
          "type": "uint256[]"
        }
      ],
      "name": "balanceOfBatch",
      "outputs": [
        {
          "internalType": "uint256[]",
          "name": "",
          "type": "uint256[]"
        }
      ],
      "stateMutability": "view",
      "type": "function",
      "constant": true
    },
    {
      "inputs": [
        {
          "internalType": "address",
          "name": "account",
          "type": "address"
        },
        {
          "internalType": "address",
          "name": "operator",
          "type": "address"
        }
      ],
      "name": "isApprovedForAll",
      "outputs": [
        {
          "internalType": "bool",
          "name": "",
          "type": "bool"
        }
      ],
      "stateMutability": "view",
      "type": "function",
      "constant": true
    },
    {
      "inputs": [],
      "name": "owner",
      "outputs": [
        {
          "internalType": "address",
          "name": "",
          "type": "address"
        }
      ],
      "stateMutability": "view",
      "type": "function",
      "constant": true
    },
    {
      "inputs": [],
      "name": "renounceOwnership",
      "outputs": [],
      "stateMutability": "nonpayable",
      "type": "function"
    },
    {
      "inputs": [
        {
          "internalType": "address",
          "name": "from",
          "type": "address"
        },
        {
          "internalType": "address",
          "name": "to",
          "type": "address"
        },
        {
          "internalType": "uint256[]",
          "name": "ids",
          "type": "uint256[]"
        },
        {
          "internalType": "uint256[]",
          "name": "amounts",
          "type": "uint256[]"
        },
        {
          "internalType": "bytes",
          "name": "data",
          "type": "bytes"
        }
      ],
      "name": "safeBatchTransferFrom",
      "outputs": [],
      "stateMutability": "nonpayable",
      "type": "function"
    },
    {
      "inputs": [
        {
          "internalType": "address",
          "name": "from",
          "type": "address"
        },
        {
          "internalType": "address",
          "name": "to",
          "type": "address"
        },
        {
          "internalType": "uint256",
          "name": "id",
          "type": "uint256"
        },
        {
          "internalType": "uint256",
          "name": "amount",
          "type": "uint256"
        },
        {
          "internalType": "bytes",
          "name": "data",
          "type": "bytes"
        }
      ],
      "name": "safeTransferFrom",
      "outputs": [],
      "stateMutability": "nonpayable",
      "type": "function"
    },
    {
      "inputs": [
        {
          "internalType": "address",
          "name": "operator",
          "type": "address"
        },
        {
          "internalType": "bool",
          "name": "approved",
          "type": "bool"
        }
      ],
      "name": "setApprovalForAll",
      "outputs": [],
      "stateMutability": "nonpayable",
      "type": "function"
    },
    {
      "inputs": [
        {
          "internalType": "bytes4",
          "name": "interfaceId",
          "type": "bytes4"
        }
      ],
      "name": "supportsInterface",
      "outputs": [
        {
          "internalType": "bool",
          "name": "",
          "type": "bool"
        }
      ],
      "stateMutability": "view",
      "type": "function",
      "constant": true
    },
    {
      "inputs": [],
      "name": "totalPlans",
      "outputs": [
        {
          "internalType": "uint256",
          "name": "",
          "type": "uint256"
        }
      ],
      "stateMutability": "view",
      "type": "function",
      "constant": true
    },
    {
      "inputs": [
        {
          "internalType": "address",
          "name": "newOwner",
          "type": "address"
        }
      ],
      "name": "transferOwnership",
      "outputs": [],
      "stateMutability": "nonpayable",
      "type": "function"
    },
    {
      "inputs": [
        {
          "internalType": "uint256",
          "name": "",
          "type": "uint256"
        }
      ],
      "name": "uri",
      "outputs": [
        {
          "internalType": "string",
          "name": "",
          "type": "string"
        }
      ],
      "stateMutability": "view",
      "type": "function",
      "constant": true
    },
    {
      "inputs": [
        {
          "internalType": "string",
          "name": "uri",
          "type": "string"
        }
      ],
      "name": "setURI",
      "outputs": [],
      "stateMutability": "nonpayable",
      "type": "function"
    },
    {
      "inputs": [
        {
          "internalType": "string",
          "name": "_name",
          "type": "string"
        },
        {
          "internalType": "string",
          "name": "uri",
          "type": "string"
        },
        {
          "internalType": "uint256",
          "name": "price",
          "type": "uint256"
        },
        {
          "internalType": "uint256",
          "name": "time",
          "type": "uint256"
        }
      ],
      "name": "addPlan",
      "outputs": [],
      "stateMutability": "nonpayable",
      "type": "function"
    },
    {
      "inputs": [
        {
          "internalType": "uint256",
          "name": "id",
          "type": "uint256"
        },
        {
          "internalType": "string",
          "name": "_name",
          "type": "string"
        },
        {
          "internalType": "string",
          "name": "uri",
          "type": "string"
        },
        {
          "internalType": "uint256",
          "name": "price",
          "type": "uint256"
        },
        {
          "internalType": "uint256",
          "name": "time",
          "type": "uint256"
        }
      ],
      "name": "updatePlan",
      "outputs": [],
      "stateMutability": "nonpayable",
      "type": "function"
    },
    {
      "inputs": [
        {
          "internalType": "uint256",
          "name": "planId",
          "type": "uint256"
        }
      ],
      "name": "subscribe",
      "outputs": [],
      "stateMutability": "payable",
      "type": "function",
      "payable": true
    },
    {
      "inputs": [
        {
          "internalType": "address",
          "name": "user",
          "type": "address"
        }
      ],
      "name": "currentPlan",
      "outputs": [
        {
          "internalType": "uint256",
          "name": "",
          "type": "uint256"
        }
      ],
      "stateMutability": "view",
      "type": "function",
      "constant": true
    },
    {
      "inputs": [
        {
          "internalType": "uint256",
          "name": "id",
          "type": "uint256"
        }
      ],
      "name": "tokenURI",
      "outputs": [
        {
          "internalType": "string",
          "name": "",
          "type": "string"
        }
      ],
      "stateMutability": "view",
      "type": "function",
      "constant": true
    },
    {
      "inputs": [
        {
          "internalType": "uint256",
          "name": "id",
          "type": "uint256"
        }
      ],
      "name": "tokenSupply",
      "outputs": [
        {
          "internalType": "uint256",
          "name": "",
          "type": "uint256"
        }
      ],
      "stateMutability": "view",
      "type": "function",
      "constant": true
    },
    {
      "inputs": [
        {
          "internalType": "uint256",
          "name": "id",
          "type": "uint256"
        }
      ],
      "name": "tokenPrice",
      "outputs": [
        {
          "internalType": "uint256",
          "name": "",
          "type": "uint256"
        }
      ],
      "stateMutability": "view",
      "type": "function",
      "constant": true
    },
    {
      "inputs": [],
      "name": "totalSupply",
      "outputs": [
        {
          "internalType": "uint256",
          "name": "",
          "type": "uint256"
        }
      ],
      "stateMutability": "view",
      "type": "function",
      "constant": true
    },
    {
      "inputs": [],
      "name": "balance",
      "outputs": [
        {
          "internalType": "uint256",
          "name": "",
          "type": "uint256"
        }
      ],
      "stateMutability": "view",
      "type": "function",
      "constant": true
    },
    {
      "inputs": [
        {
          "internalType": "uint256",
          "name": "amount",
          "type": "uint256"
        }
      ],
      "name": "withdraw",
      "outputs": [],
      "stateMutability": "nonpayable",
      "type": "function"
    }
  ],
  "bytecode": "0x60806040523480156200001157600080fd5b50604051620046ff380380620046ff8339818101604052810190620000379190620003aa565b8062000049816200007360201b60201c565b506200006a6200005e6200008f60201b60201c565b6200009760201b60201c565b505050620004c8565b80600290805190602001906200008b9291906200015d565b5050565b600033905090565b6000600360009054906101000a900473ffffffffffffffffffffffffffffffffffffffff16905081600360006101000a81548173ffffffffffffffffffffffffffffffffffffffff021916908373ffffffffffffffffffffffffffffffffffffffff1602179055508173ffffffffffffffffffffffffffffffffffffffff168173ffffffffffffffffffffffffffffffffffffffff167f8be0079c531659141344cd1fd0a4f28419497f9722a3daafe3b4186f6b6457e060405160405180910390a35050565b8280546200016b9062000492565b90600052602060002090601f0160209004810192826200018f5760008555620001db565b82601f10620001aa57805160ff1916838001178555620001db565b82800160010185558215620001db579182015b82811115620001da578251825591602001919060010190620001bd565b5b509050620001ea9190620001ee565b5090565b5b8082111562000209576000816000905550600101620001ef565b5090565b6000604051905090565b600080fd5b600080fd5b600080fd5b600080fd5b6000601f19601f8301169050919050565b7f4e487b7100000000000000000000000000000000000000000000000000000000600052604160045260246000fd5b62000276826200022b565b810181811067ffffffffffffffff821117156200029857620002976200023c565b5b80604052505050565b6000620002ad6200020d565b9050620002bb82826200026b565b919050565b600067ffffffffffffffff821115620002de57620002dd6200023c565b5b620002e9826200022b565b9050602081019050919050565b60005b8381101562000316578082015181840152602081019050620002f9565b8381111562000326576000848401525b50505050565b6000620003436200033d84620002c0565b620002a1565b90508281526020810184848401111562000362576200036162000226565b5b6200036f848285620002f6565b509392505050565b600082601f8301126200038f576200038e62000221565b5b8151620003a18482602086016200032c565b91505092915050565b600080600060608486031215620003c657620003c562000217565b5b600084015167ffffffffffffffff811115620003e757620003e66200021c565b5b620003f58682870162000377565b935050602084015167ffffffffffffffff8111156200041957620004186200021c565b5b620004278682870162000377565b925050604084015167ffffffffffffffff8111156200044b576200044a6200021c565b5b620004598682870162000377565b9150509250925092565b7f4e487b7100000000000000000000000000000000000000000000000000000000600052602260045260246000fd5b60006002820490506001821680620004ab57607f821691505b60208210811415620004c257620004c162000463565b5b50919050565b61422780620004d86000396000f3fe60806040526004361061013f5760003560e01c806367196e0b116100b6578063c87b56dd1161006f578063c87b56dd1461045e578063d4ddce8a1461049b578063e985e9c5146104d8578063f242432a14610515578063f2fde38b1461053e578063fb649156146105675761013f565b806367196e0b14610362578063715018a61461038b5780638da5cb5b146103a2578063981013c7146103cd578063a22cb4651461040a578063b69ef8a8146104335761013f565b806318160ddd1161010857806318160ddd146102405780632693ebf21461026b5780632a6d1aa4146102a85780632e1a7d4d146102d35780632eb2c2d6146102fc5780634e1273f4146103255761013f565b8062fdd58e1461014457806301ffc9a71461018157806302fe5305146101be5780630e89341c146101e75780630f574ba714610224575b600080fd5b34801561015057600080fd5b5061016b60048036038101906101669190612893565b610590565b60405161017891906128e2565b60405180910390f35b34801561018d57600080fd5b506101a860048036038101906101a39190612955565b610659565b6040516101b5919061299d565b60405180910390f35b3480156101ca57600080fd5b506101e560048036038101906101e09190612afe565b61073b565b005b3480156101f357600080fd5b5061020e60048036038101906102099190612b47565b61074f565b60405161021b9190612bfc565b60405180910390f35b61023e60048036038101906102399190612b47565b6107e3565b005b34801561024c57600080fd5b50610255610b9c565b60405161026291906128e2565b60405180910390f35b34801561027757600080fd5b50610292600480360381019061028d9190612b47565b610ba6565b60405161029f91906128e2565b60405180910390f35b3480156102b457600080fd5b506102bd610c19565b6040516102ca91906128e2565b60405180910390f35b3480156102df57600080fd5b506102fa60048036038101906102f59190612b47565b610c1f565b005b34801561030857600080fd5b50610323600480360381019061031e9190612d87565b610cde565b005b34801561033157600080fd5b5061034c60048036038101906103479190612f19565b610d7f565b604051610359919061304f565b60405180910390f35b34801561036e57600080fd5b5061038960048036038101906103849190613071565b610e98565b005b34801561039757600080fd5b506103a0610f73565b005b3480156103ae57600080fd5b506103b7610f87565b6040516103c4919061311f565b60405180910390f35b3480156103d957600080fd5b506103f460048036038101906103ef919061313a565b610fb1565b60405161040191906128e2565b60405180910390f35b34801561041657600080fd5b50610431600480360381019061042c9190613193565b6110eb565b005b34801561043f57600080fd5b50610448611101565b60405161045591906128e2565b60405180910390f35b34801561046a57600080fd5b5061048560048036038101906104809190612b47565b611111565b6040516104929190612bfc565b60405180910390f35b3480156104a757600080fd5b506104c260048036038101906104bd9190612b47565b61120c565b6040516104cf91906128e2565b60405180910390f35b3480156104e457600080fd5b506104ff60048036038101906104fa91906131d3565b61127f565b60405161050c919061299d565b60405180910390f35b34801561052157600080fd5b5061053c60048036038101906105379190613213565b611313565b005b34801561054a57600080fd5b506105656004803603810190610560919061313a565b6113b4565b005b34801561057357600080fd5b5061058e600480360381019061058991906132aa565b611438565b005b60008073ffffffffffffffffffffffffffffffffffffffff168373ffffffffffffffffffffffffffffffffffffffff161415610601576040517f08c379a00000000000000000000000000000000000000000000000000000000081526004016105f8906133cf565b60405180910390fd5b60008083815260200190815260200160002060008473ffffffffffffffffffffffffffffffffffffffff1673ffffffffffffffffffffffffffffffffffffffff16815260200190815260200160002054905092915050565b60007fd9b67a26000000000000000000000000000000000000000000000000000000007bffffffffffffffffffffffffffffffffffffffffffffffffffffffff1916827bffffffffffffffffffffffffffffffffffffffffffffffffffffffff1916148061072457507f0e89341c000000000000000000000000000000000000000000000000000000007bffffffffffffffffffffffffffffffffffffffffffffffffffffffff1916827bffffffffffffffffffffffffffffffffffffffffffffffffffffffff1916145b806107345750610733826114f2565b5b9050919050565b61074361155c565b61074c816115da565b50565b60606002805461075e9061341e565b80601f016020809104026020016040519081016040528092919081815260200182805461078a9061341e565b80156107d75780601f106107ac576101008083540402835291602001916107d7565b820191906000526020600020905b8154815290600101906020018083116107ba57829003601f168201915b50505050509050919050565b8060065481111580156107f65750600081115b610835576040517f08c379a000000000000000000000000000000000000000000000000000000000815260040161082c9061349c565b60405180910390fd5b60011515610842836115f4565b151514610884576040517f08c379a000000000000000000000000000000000000000000000000000000000815260040161087b9061352e565b60405180910390fd5b600460008381526020019081526020016000206003015434146108dc576040517f08c379a00000000000000000000000000000000000000000000000000000000081526004016108d3906135c0565b60405180910390fd5b610906600160046000858152602001908152602001600020600201546116ce90919063ffffffff16565b6004600084815260200190815260200160002060020181905550604051806040016040528083815260200142815250600560003373ffffffffffffffffffffffffffffffffffffffff1673ffffffffffffffffffffffffffffffffffffffff1681526020019081526020016000206000820151816000015560208201518160010155905050610a2333600560003373ffffffffffffffffffffffffffffffffffffffff1673ffffffffffffffffffffffffffffffffffffffff16815260200190815260200160002060000154610a1e33600560003373ffffffffffffffffffffffffffffffffffffffff1673ffffffffffffffffffffffffffffffffffffffff16815260200190815260200160002060000154610590565b6116e4565b610ad9610a7233600560003373ffffffffffffffffffffffffffffffffffffffff1673ffffffffffffffffffffffffffffffffffffffff16815260200190815260200160002060000154610590565b60046000600560003373ffffffffffffffffffffffffffffffffffffffff1673ffffffffffffffffffffffffffffffffffffffff1681526020019081526020016000206000015481526020019081526020016000206002015461192b90919063ffffffff16565b60046000600560003373ffffffffffffffffffffffffffffffffffffffff1673ffffffffffffffffffffffffffffffffffffffff16815260200190815260200160002060000154815260200190815260200160002060020181905550610b513383600160405180602001604052806000815250611941565b3373ffffffffffffffffffffffffffffffffffffffff166108fc349081150290604051600060405180830381858888f19350505050158015610b97573d6000803e3d6000fd5b505050565b6000600654905090565b6000816006548111158015610bbb5750600081115b610bfa576040517f08c379a0000000000000000000000000000000000000000000000000000000008152600401610bf19061349c565b60405180910390fd5b6004600084815260200190815260200160002060020154915050919050565b60065481565b610c2761155c565b6000610c31610f87565b73ffffffffffffffffffffffffffffffffffffffff1682604051610c5490613611565b60006040518083038185875af1925050503d8060008114610c91576040519150601f19603f3d011682016040523d82523d6000602084013e610c96565b606091505b5050905080610cda576040517f08c379a0000000000000000000000000000000000000000000000000000000008152600401610cd190613672565b60405180910390fd5b5050565b610ce6611af2565b73ffffffffffffffffffffffffffffffffffffffff168573ffffffffffffffffffffffffffffffffffffffff161480610d2c5750610d2b85610d26611af2565b61127f565b5b610d6b576040517f08c379a0000000000000000000000000000000000000000000000000000000008152600401610d6290613704565b60405180910390fd5b610d788585858585611afa565b5050505050565b60608151835114610dc5576040517f08c379a0000000000000000000000000000000000000000000000000000000008152600401610dbc90613796565b60405180910390fd5b6000835167ffffffffffffffff811115610de257610de16129d3565b5b604051908082528060200260200182016040528015610e105781602001602082028036833780820191505090505b50905060005b8451811015610e8d57610e5d858281518110610e3557610e346137b6565b5b6020026020010151858381518110610e5057610e4f6137b6565b5b6020026020010151610590565b828281518110610e7057610e6f6137b6565b5b60200260200101818152505080610e8690613814565b9050610e16565b508091505092915050565b610ea061155c565b610eb660016006546116ce90919063ffffffff16565b6006819055506000610ed460016006546116ce90919063ffffffff16565b90506040518060a001604052808681526020018581526020016000815260200184815260200183815250600460008381526020019081526020016000206000820151816000019080519060200190610f2d929190612748565b506020820151816001019080519060200190610f4a929190612748565b506040820151816002015560608201518160030155608082015181600401559050505050505050565b610f7b61155c565b610f856000611e1c565b565b6000600360009054906101000a900473ffffffffffffffffffffffffffffffffffffffff16905090565b600060046000600560003373ffffffffffffffffffffffffffffffffffffffff1673ffffffffffffffffffffffffffffffffffffffff16815260200190815260200160002060000154815260200190815260200160002060040154611061600560003373ffffffffffffffffffffffffffffffffffffffff1673ffffffffffffffffffffffffffffffffffffffff168152602001908152602001600020600101544261192b90919063ffffffff16565b106110a1576040517f08c379a0000000000000000000000000000000000000000000000000000000008152600401611098906138a9565b60405180910390fd5b600560008373ffffffffffffffffffffffffffffffffffffffff1673ffffffffffffffffffffffffffffffffffffffff168152602001908152602001600020600001549050919050565b6110fd6110f6611af2565b8383611ee2565b5050565b600061110b61155c565b47905090565b60608160065481111580156111265750600081115b611165576040517f08c379a000000000000000000000000000000000000000000000000000000000815260040161115c9061349c565b60405180910390fd5b6004600084815260200190815260200160002060010180546111869061341e565b80601f01602080910402602001604051908101604052809291908181526020018280546111b29061341e565b80156111ff5780601f106111d4576101008083540402835291602001916111ff565b820191906000526020600020905b8154815290600101906020018083116111e257829003601f168201915b5050505050915050919050565b60008160065481111580156112215750600081115b611260576040517f08c379a00000000000000000000000000000000000000000000000000000000081526004016112579061349c565b60405180910390fd5b6004600084815260200190815260200160002060030154915050919050565b6000600160008473ffffffffffffffffffffffffffffffffffffffff1673ffffffffffffffffffffffffffffffffffffffff16815260200190815260200160002060008373ffffffffffffffffffffffffffffffffffffffff1673ffffffffffffffffffffffffffffffffffffffff16815260200190815260200160002060009054906101000a900460ff16905092915050565b61131b611af2565b73ffffffffffffffffffffffffffffffffffffffff168573ffffffffffffffffffffffffffffffffffffffff16148061136157506113608561135b611af2565b61127f565b5b6113a0576040517f08c379a000000000000000000000000000000000000000000000000000000000815260040161139790613704565b60405180910390fd5b6113ad858585858561204f565b5050505050565b6113bc61155c565b600073ffffffffffffffffffffffffffffffffffffffff168173ffffffffffffffffffffffffffffffffffffffff16141561142c576040517f08c379a00000000000000000000000000000000000000000000000000000000081526004016114239061393b565b60405180910390fd5b61143581611e1c565b50565b61144061155c565b6040518060a0016040528085815260200184815260200160046000888152602001908152602001600020600201548152602001838152602001828152506004600087815260200190815260200160002060008201518160000190805190602001906114ac929190612748565b5060208201518160010190805190602001906114c9929190612748565b506040820151816002015560608201518160030155608082015181600401559050505050505050565b60007f01ffc9a7000000000000000000000000000000000000000000000000000000007bffffffffffffffffffffffffffffffffffffffffffffffffffffffff1916827bffffffffffffffffffffffffffffffffffffffffffffffffffffffff1916149050919050565b611564611af2565b73ffffffffffffffffffffffffffffffffffffffff16611582610f87565b73ffffffffffffffffffffffffffffffffffffffff16146115d8576040517f08c379a00000000000000000000000000000000000000000000000000000000081526004016115cf906139a7565b60405180910390fd5b565b80600290805190602001906115f0929190612748565b5050565b600081600560003373ffffffffffffffffffffffffffffffffffffffff1673ffffffffffffffffffffffffffffffffffffffff1681526020019081526020016000206000015414156116c45760046000838152602001908152602001600020600401546116ac600560003373ffffffffffffffffffffffffffffffffffffffff1673ffffffffffffffffffffffffffffffffffffffff168152602001908152602001600020600101544261192b90919063ffffffff16565b10156116bb57600090506116c9565b600190506116c9565b600190505b919050565b600081836116dc91906139c7565b905092915050565b600073ffffffffffffffffffffffffffffffffffffffff168373ffffffffffffffffffffffffffffffffffffffff161415611754576040517f08c379a000000000000000000000000000000000000000000000000000000000815260040161174b90613a8f565b60405180910390fd5b600061175e611af2565b9050600061176b846122eb565b90506000611778846122eb565b905061179883876000858560405180602001604052806000815250612365565b600080600087815260200190815260200160002060008873ffffffffffffffffffffffffffffffffffffffff1673ffffffffffffffffffffffffffffffffffffffff1681526020019081526020016000205490508481101561182f576040517f08c379a000000000000000000000000000000000000000000000000000000000815260040161182690613b21565b60405180910390fd5b84810360008088815260200190815260200160002060008973ffffffffffffffffffffffffffffffffffffffff1673ffffffffffffffffffffffffffffffffffffffff16815260200190815260200160002081905550600073ffffffffffffffffffffffffffffffffffffffff168773ffffffffffffffffffffffffffffffffffffffff168573ffffffffffffffffffffffffffffffffffffffff167fc3d58168c5ae7397731d063d5bbf3d657854427343f4c083240f7aacaa2d0f6289896040516118fc929190613b41565b60405180910390a46119228488600086866040518060200160405280600081525061236d565b50505050505050565b600081836119399190613b6a565b905092915050565b600073ffffffffffffffffffffffffffffffffffffffff168473ffffffffffffffffffffffffffffffffffffffff1614156119b1576040517f08c379a00000000000000000000000000000000000000000000000000000000081526004016119a890613c10565b60405180910390fd5b60006119bb611af2565b905060006119c8856122eb565b905060006119d5856122eb565b90506119e683600089858589612365565b8460008088815260200190815260200160002060008973ffffffffffffffffffffffffffffffffffffffff1673ffffffffffffffffffffffffffffffffffffffff1681526020019081526020016000206000828254611a4591906139c7565b925050819055508673ffffffffffffffffffffffffffffffffffffffff16600073ffffffffffffffffffffffffffffffffffffffff168473ffffffffffffffffffffffffffffffffffffffff167fc3d58168c5ae7397731d063d5bbf3d657854427343f4c083240f7aacaa2d0f628989604051611ac3929190613b41565b60405180910390a4611ada8360008985858961236d565b611ae983600089898989612375565b50505050505050565b600033905090565b8151835114611b3e576040517f08c379a0000000000000000000000000000000000000000000000000000000008152600401611b3590613ca2565b60405180910390fd5b600073ffffffffffffffffffffffffffffffffffffffff168473ffffffffffffffffffffffffffffffffffffffff161415611bae576040517f08c379a0000000000000000000000000000000000000000000000000000000008152600401611ba590613d34565b60405180910390fd5b6000611bb8611af2565b9050611bc8818787878787612365565b60005b8451811015611d79576000858281518110611be957611be86137b6565b5b602002602001015190506000858381518110611c0857611c076137b6565b5b60200260200101519050600080600084815260200190815260200160002060008b73ffffffffffffffffffffffffffffffffffffffff1673ffffffffffffffffffffffffffffffffffffffff16815260200190815260200160002054905081811015611ca9576040517f08c379a0000000000000000000000000000000000000000000000000000000008152600401611ca090613dc6565b60405180910390fd5b81810360008085815260200190815260200160002060008c73ffffffffffffffffffffffffffffffffffffffff1673ffffffffffffffffffffffffffffffffffffffff168152602001908152602001600020819055508160008085815260200190815260200160002060008b73ffffffffffffffffffffffffffffffffffffffff1673ffffffffffffffffffffffffffffffffffffffff1681526020019081526020016000206000828254611d5e91906139c7565b9250508190555050505080611d7290613814565b9050611bcb565b508473ffffffffffffffffffffffffffffffffffffffff168673ffffffffffffffffffffffffffffffffffffffff168273ffffffffffffffffffffffffffffffffffffffff167f4a39dc06d4c0dbc64b70af90fd698a233a518aa5d07e595d983b8c0526c8f7fb8787604051611df0929190613de6565b60405180910390a4611e0681878787878761236d565b611e1481878787878761254d565b505050505050565b6000600360009054906101000a900473ffffffffffffffffffffffffffffffffffffffff16905081600360006101000a81548173ffffffffffffffffffffffffffffffffffffffff021916908373ffffffffffffffffffffffffffffffffffffffff1602179055508173ffffffffffffffffffffffffffffffffffffffff168173ffffffffffffffffffffffffffffffffffffffff167f8be0079c531659141344cd1fd0a4f28419497f9722a3daafe3b4186f6b6457e060405160405180910390a35050565b8173ffffffffffffffffffffffffffffffffffffffff168373ffffffffffffffffffffffffffffffffffffffff161415611f51576040517f08c379a0000000000000000000000000000000000000000000000000000000008152600401611f4890613e8f565b60405180910390fd5b80600160008573ffffffffffffffffffffffffffffffffffffffff1673ffffffffffffffffffffffffffffffffffffffff16815260200190815260200160002060008473ffffffffffffffffffffffffffffffffffffffff1673ffffffffffffffffffffffffffffffffffffffff16815260200190815260200160002060006101000a81548160ff0219169083151502179055508173ffffffffffffffffffffffffffffffffffffffff168373ffffffffffffffffffffffffffffffffffffffff167f17307eab39ab6107e8899845ad3d59bd9653f200f220920489ca2b5937696c3183604051612042919061299d565b60405180910390a3505050565b600073ffffffffffffffffffffffffffffffffffffffff168473ffffffffffffffffffffffffffffffffffffffff1614156120bf576040517f08c379a00000000000000000000000000000000000000000000000000000000081526004016120b690613d34565b60405180910390fd5b60006120c9611af2565b905060006120d6856122eb565b905060006120e3856122eb565b90506120f3838989858589612365565b600080600088815260200190815260200160002060008a73ffffffffffffffffffffffffffffffffffffffff1673ffffffffffffffffffffffffffffffffffffffff1681526020019081526020016000205490508581101561218a576040517f08c379a000000000000000000000000000000000000000000000000000000000815260040161218190613dc6565b60405180910390fd5b85810360008089815260200190815260200160002060008b73ffffffffffffffffffffffffffffffffffffffff1673ffffffffffffffffffffffffffffffffffffffff168152602001908152602001600020819055508560008089815260200190815260200160002060008a73ffffffffffffffffffffffffffffffffffffffff1673ffffffffffffffffffffffffffffffffffffffff168152602001908152602001600020600082825461223f91906139c7565b925050819055508773ffffffffffffffffffffffffffffffffffffffff168973ffffffffffffffffffffffffffffffffffffffff168573ffffffffffffffffffffffffffffffffffffffff167fc3d58168c5ae7397731d063d5bbf3d657854427343f4c083240f7aacaa2d0f628a8a6040516122bc929190613b41565b60405180910390a46122d2848a8a86868a61236d565b6122e0848a8a8a8a8a612375565b505050505050505050565b60606000600167ffffffffffffffff81111561230a576123096129d3565b5b6040519080825280602002602001820160405280156123385781602001602082028036833780820191505090505b50905082816000815181106123505761234f6137b6565b5b60200260200101818152505080915050919050565b505050505050565b505050505050565b6123948473ffffffffffffffffffffffffffffffffffffffff16612725565b15612545578373ffffffffffffffffffffffffffffffffffffffff1663f23a6e6187878686866040518663ffffffff1660e01b81526004016123da959493929190613f04565b6020604051808303816000875af192505050801561241657506040513d601f19601f820116820180604052508101906124139190613f73565b60015b6124bc57612422613fad565b806308c379a0141561247f5750612437613fcf565b806124425750612481565b806040517f08c379a00000000000000000000000000000000000000000000000000000000081526004016124769190612bfc565b60405180910390fd5b505b6040517f08c379a00000000000000000000000000000000000000000000000000000000081526004016124b3906140d7565b60405180910390fd5b63f23a6e6160e01b7bffffffffffffffffffffffffffffffffffffffffffffffffffffffff1916817bffffffffffffffffffffffffffffffffffffffffffffffffffffffff191614612543576040517f08c379a000000000000000000000000000000000000000000000000000000000815260040161253a90614169565b60405180910390fd5b505b505050505050565b61256c8473ffffffffffffffffffffffffffffffffffffffff16612725565b1561271d578373ffffffffffffffffffffffffffffffffffffffff1663bc197c8187878686866040518663ffffffff1660e01b81526004016125b2959493929190614189565b6020604051808303816000875af19250505080156125ee57506040513d601f19601f820116820180604052508101906125eb9190613f73565b60015b612694576125fa613fad565b806308c379a01415612657575061260f613fcf565b8061261a5750612659565b806040517f08c379a000000000000000000000000000000000000000000000000000000000815260040161264e9190612bfc565b60405180910390fd5b505b6040517f08c379a000000000000000000000000000000000000000000000000000000000815260040161268b906140d7565b60405180910390fd5b63bc197c8160e01b7bffffffffffffffffffffffffffffffffffffffffffffffffffffffff1916817bffffffffffffffffffffffffffffffffffffffffffffffffffffffff19161461271b576040517f08c379a000000000000000000000000000000000000000000000000000000000815260040161271290614169565b60405180910390fd5b505b505050505050565b6000808273ffffffffffffffffffffffffffffffffffffffff163b119050919050565b8280546127549061341e565b90600052602060002090601f01602090048101928261277657600085556127bd565b82601f1061278f57805160ff19168380011785556127bd565b828001600101855582156127bd579182015b828111156127bc5782518255916020019190600101906127a1565b5b5090506127ca91906127ce565b5090565b5b808211156127e75760008160009055506001016127cf565b5090565b6000604051905090565b600080fd5b600080fd5b600073ffffffffffffffffffffffffffffffffffffffff82169050919050565b600061282a826127ff565b9050919050565b61283a8161281f565b811461284557600080fd5b50565b60008135905061285781612831565b92915050565b6000819050919050565b6128708161285d565b811461287b57600080fd5b50565b60008135905061288d81612867565b92915050565b600080604083850312156128aa576128a96127f5565b5b60006128b885828601612848565b92505060206128c98582860161287e565b9150509250929050565b6128dc8161285d565b82525050565b60006020820190506128f760008301846128d3565b92915050565b60007fffffffff0000000000000000000000000000000000000000000000000000000082169050919050565b612932816128fd565b811461293d57600080fd5b50565b60008135905061294f81612929565b92915050565b60006020828403121561296b5761296a6127f5565b5b600061297984828501612940565b91505092915050565b60008115159050919050565b61299781612982565b82525050565b60006020820190506129b2600083018461298e565b92915050565b600080fd5b600080fd5b6000601f19601f8301169050919050565b7f4e487b7100000000000000000000000000000000000000000000000000000000600052604160045260246000fd5b612a0b826129c2565b810181811067ffffffffffffffff82111715612a2a57612a296129d3565b5b80604052505050565b6000612a3d6127eb565b9050612a498282612a02565b919050565b600067ffffffffffffffff821115612a6957612a686129d3565b5b612a72826129c2565b9050602081019050919050565b82818337600083830152505050565b6000612aa1612a9c84612a4e565b612a33565b905082815260208101848484011115612abd57612abc6129bd565b5b612ac8848285612a7f565b509392505050565b600082601f830112612ae557612ae46129b8565b5b8135612af5848260208601612a8e565b91505092915050565b600060208284031215612b1457612b136127f5565b5b600082013567ffffffffffffffff811115612b3257612b316127fa565b5b612b3e84828501612ad0565b91505092915050565b600060208284031215612b5d57612b5c6127f5565b5b6000612b6b8482850161287e565b91505092915050565b600081519050919050565b600082825260208201905092915050565b60005b83811015612bae578082015181840152602081019050612b93565b83811115612bbd576000848401525b50505050565b6000612bce82612b74565b612bd88185612b7f565b9350612be8818560208601612b90565b612bf1816129c2565b840191505092915050565b60006020820190508181036000830152612c168184612bc3565b905092915050565b600067ffffffffffffffff821115612c3957612c386129d3565b5b602082029050602081019050919050565b600080fd5b6000612c62612c5d84612c1e565b612a33565b90508083825260208201905060208402830185811115612c8557612c84612c4a565b5b835b81811015612cae5780612c9a888261287e565b845260208401935050602081019050612c87565b5050509392505050565b600082601f830112612ccd57612ccc6129b8565b5b8135612cdd848260208601612c4f565b91505092915050565b600067ffffffffffffffff821115612d0157612d006129d3565b5b612d0a826129c2565b9050602081019050919050565b6000612d2a612d2584612ce6565b612a33565b905082815260208101848484011115612d4657612d456129bd565b5b612d51848285612a7f565b509392505050565b600082601f830112612d6e57612d6d6129b8565b5b8135612d7e848260208601612d17565b91505092915050565b600080600080600060a08688031215612da357612da26127f5565b5b6000612db188828901612848565b9550506020612dc288828901612848565b945050604086013567ffffffffffffffff811115612de357612de26127fa565b5b612def88828901612cb8565b935050606086013567ffffffffffffffff811115612e1057612e0f6127fa565b5b612e1c88828901612cb8565b925050608086013567ffffffffffffffff811115612e3d57612e3c6127fa565b5b612e4988828901612d59565b9150509295509295909350565b600067ffffffffffffffff821115612e7157612e706129d3565b5b602082029050602081019050919050565b6000612e95612e9084612e56565b612a33565b90508083825260208201905060208402830185811115612eb857612eb7612c4a565b5b835b81811015612ee15780612ecd8882612848565b845260208401935050602081019050612eba565b5050509392505050565b600082601f830112612f0057612eff6129b8565b5b8135612f10848260208601612e82565b91505092915050565b60008060408385031215612f3057612f2f6127f5565b5b600083013567ffffffffffffffff811115612f4e57612f4d6127fa565b5b612f5a85828601612eeb565b925050602083013567ffffffffffffffff811115612f7b57612f7a6127fa565b5b612f8785828601612cb8565b9150509250929050565b600081519050919050565b600082825260208201905092915050565b6000819050602082019050919050565b612fc68161285d565b82525050565b6000612fd88383612fbd565b60208301905092915050565b6000602082019050919050565b6000612ffc82612f91565b6130068185612f9c565b935061301183612fad565b8060005b838110156130425781516130298882612fcc565b975061303483612fe4565b925050600181019050613015565b5085935050505092915050565b600060208201905081810360008301526130698184612ff1565b905092915050565b6000806000806080858703121561308b5761308a6127f5565b5b600085013567ffffffffffffffff8111156130a9576130a86127fa565b5b6130b587828801612ad0565b945050602085013567ffffffffffffffff8111156130d6576130d56127fa565b5b6130e287828801612ad0565b93505060406130f38782880161287e565b92505060606131048782880161287e565b91505092959194509250565b6131198161281f565b82525050565b60006020820190506131346000830184613110565b92915050565b6000602082840312156131505761314f6127f5565b5b600061315e84828501612848565b91505092915050565b61317081612982565b811461317b57600080fd5b50565b60008135905061318d81613167565b92915050565b600080604083850312156131aa576131a96127f5565b5b60006131b885828601612848565b92505060206131c98582860161317e565b9150509250929050565b600080604083850312156131ea576131e96127f5565b5b60006131f885828601612848565b925050602061320985828601612848565b9150509250929050565b600080600080600060a0868803121561322f5761322e6127f5565b5b600061323d88828901612848565b955050602061324e88828901612848565b945050604061325f8882890161287e565b93505060606132708882890161287e565b925050608086013567ffffffffffffffff811115613291576132906127fa565b5b61329d88828901612d59565b9150509295509295909350565b600080600080600060a086880312156132c6576132c56127f5565b5b60006132d48882890161287e565b955050602086013567ffffffffffffffff8111156132f5576132f46127fa565b5b61330188828901612ad0565b945050604086013567ffffffffffffffff811115613322576133216127fa565b5b61332e88828901612ad0565b935050606061333f8882890161287e565b92505060806133508882890161287e565b9150509295509295909350565b7f455243313135353a2061646472657373207a65726f206973206e6f742061207660008201527f616c6964206f776e657200000000000000000000000000000000000000000000602082015250565b60006133b9602a83612b7f565b91506133c48261335d565b604082019050919050565b600060208201905081810360008301526133e8816133ac565b9050919050565b7f4e487b7100000000000000000000000000000000000000000000000000000000600052602260045260246000fd5b6000600282049050600182168061343657607f821691505b6020821081141561344a576134496133ef565b5b50919050565b7f70726f76696465206120636f727265637420706c616e49440000000000000000600082015250565b6000613486601883612b7f565b915061349182613450565b602082019050919050565b600060208201905081810360008301526134b581613479565b9050919050565b7f796f75722063757272656e7420706c616e206861736e2774206578706972656460008201527f2079657400000000000000000000000000000000000000000000000000000000602082015250565b6000613518602483612b7f565b9150613523826134bc565b604082019050919050565b600060208201905081810360008301526135478161350b565b9050919050565b7f706c656173652073656e6420636f727265637420616d6f756e74206f6620657460008201527f6865720000000000000000000000000000000000000000000000000000000000602082015250565b60006135aa602383612b7f565b91506135b58261354e565b604082019050919050565b600060208201905081810360008301526135d98161359d565b9050919050565b600081905092915050565b50565b60006135fb6000836135e0565b9150613606826135eb565b600082019050919050565b600061361c826135ee565b9150819050919050565b7f7472616e73666572206661696c65640000000000000000000000000000000000600082015250565b600061365c600f83612b7f565b915061366782613626565b602082019050919050565b6000602082019050818103600083015261368b8161364f565b9050919050565b7f455243313135353a2063616c6c6572206973206e6f7420746f6b656e206f776e60008201527f6572206e6f7220617070726f7665640000000000000000000000000000000000602082015250565b60006136ee602f83612b7f565b91506136f982613692565b604082019050919050565b6000602082019050818103600083015261371d816136e1565b9050919050565b7f455243313135353a206163636f756e747320616e6420696473206c656e67746860008201527f206d69736d617463680000000000000000000000000000000000000000000000602082015250565b6000613780602983612b7f565b915061378b82613724565b604082019050919050565b600060208201905081810360008301526137af81613773565b9050919050565b7f4e487b7100000000000000000000000000000000000000000000000000000000600052603260045260246000fd5b7f4e487b7100000000000000000000000000000000000000000000000000000000600052601160045260246000fd5b600061381f8261285d565b91507fffffffffffffffffffffffffffffffffffffffffffffffffffffffffffffffff821415613852576138516137e5565b5b600182019050919050565b7f64656f736e2774206861766520616e792061637469766520706c616e00000000600082015250565b6000613893601c83612b7f565b915061389e8261385d565b602082019050919050565b600060208201905081810360008301526138c281613886565b9050919050565b7f4f776e61626c653a206e6577206f776e657220697320746865207a65726f206160008201527f6464726573730000000000000000000000000000000000000000000000000000602082015250565b6000613925602683612b7f565b9150613930826138c9565b604082019050919050565b6000602082019050818103600083015261395481613918565b9050919050565b7f4f776e61626c653a2063616c6c6572206973206e6f7420746865206f776e6572600082015250565b6000613991602083612b7f565b915061399c8261395b565b602082019050919050565b600060208201905081810360008301526139c081613984565b9050919050565b60006139d28261285d565b91506139dd8361285d565b9250827fffffffffffffffffffffffffffffffffffffffffffffffffffffffffffffffff03821115613a1257613a116137e5565b5b828201905092915050565b7f455243313135353a206275726e2066726f6d20746865207a65726f206164647260008201527f6573730000000000000000000000000000000000000000000000000000000000602082015250565b6000613a79602383612b7f565b9150613a8482613a1d565b604082019050919050565b60006020820190508181036000830152613aa881613a6c565b9050919050565b7f455243313135353a206275726e20616d6f756e7420657863656564732062616c60008201527f616e636500000000000000000000000000000000000000000000000000000000602082015250565b6000613b0b602483612b7f565b9150613b1682613aaf565b604082019050919050565b60006020820190508181036000830152613b3a81613afe565b9050919050565b6000604082019050613b5660008301856128d3565b613b6360208301846128d3565b9392505050565b6000613b758261285d565b9150613b808361285d565b925082821015613b9357613b926137e5565b5b828203905092915050565b7f455243313135353a206d696e7420746f20746865207a65726f2061646472657360008201527f7300000000000000000000000000000000000000000000000000000000000000602082015250565b6000613bfa602183612b7f565b9150613c0582613b9e565b604082019050919050565b60006020820190508181036000830152613c2981613bed565b9050919050565b7f455243313135353a2069647320616e6420616d6f756e7473206c656e6774682060008201527f6d69736d61746368000000000000000000000000000000000000000000000000602082015250565b6000613c8c602883612b7f565b9150613c9782613c30565b604082019050919050565b60006020820190508181036000830152613cbb81613c7f565b9050919050565b7f455243313135353a207472616e7366657220746f20746865207a65726f20616460008201527f6472657373000000000000000000000000000000000000000000000000000000602082015250565b6000613d1e602583612b7f565b9150613d2982613cc2565b604082019050919050565b60006020820190508181036000830152613d4d81613d11565b9050919050565b7f455243313135353a20696e73756666696369656e742062616c616e636520666f60008201527f72207472616e7366657200000000000000000000000000000000000000000000602082015250565b6000613db0602a83612b7f565b9150613dbb82613d54565b604082019050919050565b60006020820190508181036000830152613ddf81613da3565b9050919050565b60006040820190508181036000830152613e008185612ff1565b90508181036020830152613e148184612ff1565b90509392505050565b7f455243313135353a2073657474696e6720617070726f76616c2073746174757360008201527f20666f722073656c660000000000000000000000000000000000000000000000602082015250565b6000613e79602983612b7f565b9150613e8482613e1d565b604082019050919050565b60006020820190508181036000830152613ea881613e6c565b9050919050565b600081519050919050565b600082825260208201905092915050565b6000613ed682613eaf565b613ee08185613eba565b9350613ef0818560208601612b90565b613ef9816129c2565b840191505092915050565b600060a082019050613f196000830188613110565b613f266020830187613110565b613f3360408301866128d3565b613f4060608301856128d3565b8181036080830152613f528184613ecb565b90509695505050505050565b600081519050613f6d81612929565b92915050565b600060208284031215613f8957613f886127f5565b5b6000613f9784828501613f5e565b91505092915050565b60008160e01c9050919050565b600060033d1115613fcc5760046000803e613fc9600051613fa0565b90505b90565b600060443d1015613fdf57614062565b613fe76127eb565b60043d036004823e80513d602482011167ffffffffffffffff8211171561400f575050614062565b808201805167ffffffffffffffff81111561402d5750505050614062565b80602083010160043d03850181111561404a575050505050614062565b61405982602001850186612a02565b82955050505050505b90565b7f455243313135353a207472616e7366657220746f206e6f6e204552433131353560008201527f526563656976657220696d706c656d656e746572000000000000000000000000602082015250565b60006140c1603483612b7f565b91506140cc82614065565b604082019050919050565b600060208201905081810360008301526140f0816140b4565b9050919050565b7f455243313135353a204552433131353552656365697665722072656a6563746560008201527f6420746f6b656e73000000000000000000000000000000000000000000000000602082015250565b6000614153602883612b7f565b915061415e826140f7565b604082019050919050565b6000602082019050818103600083015261418281614146565b9050919050565b600060a08201905061419e6000830188613110565b6141ab6020830187613110565b81810360408301526141bd8186612ff1565b905081810360608301526141d18185612ff1565b905081810360808301526141e58184613ecb565b9050969550505050505056fea264697066735822122034106d623ca1607703f19faf50c39cfad9c681a17befb0fa39a19514d8890bc564736f6c634300080b0033",
  "immutableReferences": {},
  "source": "//SPDX-Licence-Identifier: MIT\r\npragma solidity ^0.8.7;\r\n\r\nimport \"@openzeppelin/contracts/utils/math/SafeMath.sol\";\r\nimport \"@openzeppelin/contracts/token/ERC1155/ERC1155.sol\";\r\nimport \"@openzeppelin/contracts/access/Ownable.sol\";\r\n\r\ncontract Eshterak is ERC1155, Ownable {\r\n\r\n    using SafeMath for uint256;\r\n\r\n    struct plan {\r\n        string name;\r\n        string uri;\r\n        uint256 subscribers;\r\n        uint256 price;\r\n        uint time;\r\n    }\r\n\r\n    struct subscriber {\r\n        uint256 plan;\r\n        uint256 date;\r\n    }\r\n\r\n    mapping(uint256 => plan) internal plans;\r\n\r\n    mapping(address => subscriber) internal subscribers;\r\n\r\n    uint256 public totalPlans;\r\n\r\n\r\nconstructor(string memory name, string memory symbol, string memory uri) ERC1155(uri) {}\r\n\r\n    modifier correctId(uint id) {\r\n        require(id <= totalPlans && id>0, \"provide a correct planID\");\r\n        _;\r\n    }\r\n\r\n    function setURI(string memory uri) external onlyOwner {\r\n        _setURI(uri);\r\n    }\r\n\r\n    function ifExpired(uint id) internal view returns(bool) {\r\n        if(subscribers[msg.sender].plan == id) {\r\n            if((block.timestamp).sub(subscribers[msg.sender].date) < plans[id].time) {\r\n                return false;\r\n            } else {\r\n                return true;\r\n            }\r\n        } else {\r\n            return true;\r\n        }\r\n    }\r\n        function addPlan(string memory _name, string memory uri, uint256 price, uint time) external onlyOwner {\r\n        totalPlans = totalPlans.add(1);\r\n        uint256 id = totalPlans.add(1);\r\n        plans[id] = plan(_name, uri, 0, price, time);\r\n    }\r\n\r\n    function updatePlan(uint id, string memory _name, string memory uri, uint256 price, uint time) external onlyOwner {\r\n        plans[id] = plan(_name, uri, plans[id].subscribers, price, time);\r\n    }\r\n\r\n    function subscribe(uint256 planId) external correctId(planId) payable {\r\n        require(ifExpired(planId) == true, \"your current plan hasn't expired yet\");\r\n        require(msg.value == plans[planId].price, \"please send correct amount of ether\");\r\n        plans[planId].subscribers = (plans[planId].subscribers).add(1);\r\n        subscribers[msg.sender] = subscriber(planId, block.timestamp);\r\n        _burn(msg.sender, subscribers[msg.sender].plan, balanceOf(msg.sender, subscribers[msg.sender].plan));\r\n        plans[subscribers[msg.sender].plan].subscribers = (plans[subscribers[msg.sender].plan].subscribers).sub(balanceOf(msg.sender, subscribers[msg.sender].plan));\r\n        _mint(msg.sender, planId, 1, \"\");\r\n        payable(msg.sender).transfer(msg.value);\r\n    }\r\n\r\n\r\n    function currentPlan(address user) public view returns(uint) {\r\n        require((block.timestamp).sub(subscribers[msg.sender].date) < plans[subscribers[msg.sender].plan].time, \"deosn't have any active plan\");\r\n        return subscribers[user].plan;\r\n    }\r\n\r\n    function tokenURI(uint id) public correctId(id) view returns(string memory) {\r\n        return plans[id].uri;\r\n    }\r\n\r\n    function tokenSupply(uint id) public correctId(id) view returns(uint) {\r\n        return plans[id].subscribers;\r\n    }\r\n\r\n    function tokenPrice(uint id) public correctId(id) view returns(uint) {\r\n        return plans[id].price;\r\n    }\r\n\r\n\r\n    function totalSupply() public view returns(uint) {\r\n        return totalPlans;\r\n    }\r\n\r\n    function balance() public view onlyOwner returns (uint) {\r\n        return address(this).balance;\r\n    }\r\n\r\n    function withdraw(uint256 amount) external onlyOwner {\r\n        (bool success, ) = payable(owner()).call{value: amount}(\"\");\r\n        require(success, \"transfer failed\");\r\n    }\r\n\r\n}",
  "sourcePath": "E:\\dishonored 2\\Blockchain\\Project\\blockchain\\Subscription Dapp\\contracts\\Eshterak.sol",
  "compiler": {
    "name": "solc",
    "version": "0.8.11+commit.d7f03943.Emscripten.clang"
  },
  "schemaVersion": "3.4.4",
  "updatedAt": "2022-09-17T13:10:48.230Z",
  "networkType": "ethereum",
  "devdoc": {
    "kind": "dev",
    "methods": {
      "balanceOf(address,uint256)": {
        "details": "See {IERC1155-balanceOf}. Requirements: - `account` cannot be the zero address."
      },
      "balanceOfBatch(address[],uint256[])": {
        "details": "See {IERC1155-balanceOfBatch}. Requirements: - `accounts` and `ids` must have the same length."
      },
      "isApprovedForAll(address,address)": {
        "details": "See {IERC1155-isApprovedForAll}."
      },
      "owner()": {
        "details": "Returns the address of the current owner."
      },
      "renounceOwnership()": {
        "details": "Leaves the contract without owner. It will not be possible to call `onlyOwner` functions anymore. Can only be called by the current owner. NOTE: Renouncing ownership will leave the contract without an owner, thereby removing any functionality that is only available to the owner."
      },
      "safeBatchTransferFrom(address,address,uint256[],uint256[],bytes)": {
        "details": "See {IERC1155-safeBatchTransferFrom}."
      },
      "safeTransferFrom(address,address,uint256,uint256,bytes)": {
        "details": "See {IERC1155-safeTransferFrom}."
      },
      "setApprovalForAll(address,bool)": {
        "details": "See {IERC1155-setApprovalForAll}."
      },
      "supportsInterface(bytes4)": {
        "details": "See {IERC165-supportsInterface}."
      },
      "transferOwnership(address)": {
        "details": "Transfers ownership of the contract to a new account (`newOwner`). Can only be called by the current owner."
      },
      "uri(uint256)": {
        "details": "See {IERC1155MetadataURI-uri}. This implementation returns the same URI for *all* token types. It relies on the token type ID substitution mechanism https://eips.ethereum.org/EIPS/eip-1155#metadata[defined in the EIP]. Clients calling this function must replace the `\\{id\\}` substring with the actual token type ID."
      }
    },
    "version": 1
  },
  "userdoc": {
    "kind": "user",
    "methods": {},
    "version": 1
  }
}