{
  "contractName": "Eshterak",
  "abi": [
    {
      "inputs": [
        {
          "internalType": "string",
          "name": "name",
          "type": "string"
        },
        {
          "internalType": "string",
          "name": "symbol",
          "type": "string"
        },
        {
          "internalType": "string",
          "name": "uri",
          "type": "string"
        }
      ],
      "stateMutability": "nonpayable",
      "type": "constructor"
    },
    {
      "anonymous": false,
      "inputs": [
        {
          "indexed": true,
          "internalType": "address",
          "name": "account",
          "type": "address"
        },
        {
          "indexed": true,
          "internalType": "address",
          "name": "operator",
          "type": "address"
        },
        {
          "indexed": false,
          "internalType": "bool",
          "name": "approved",
          "type": "bool"
        }
      ],
      "name": "ApprovalForAll",
      "type": "event"
    },
    {
      "anonymous": false,
      "inputs": [
        {
          "indexed": true,
          "internalType": "address",
          "name": "previousOwner",
          "type": "address"
        },
        {
          "indexed": true,
          "internalType": "address",
          "name": "newOwner",
          "type": "address"
        }
      ],
      "name": "OwnershipTransferred",
      "type": "event"
    },
    {
      "anonymous": false,
      "inputs": [
        {
          "indexed": true,
          "internalType": "address",
          "name": "operator",
          "type": "address"
        },
        {
          "indexed": true,
          "internalType": "address",
          "name": "from",
          "type": "address"
        },
        {
          "indexed": true,
          "internalType": "address",
          "name": "to",
          "type": "address"
        },
        {
          "indexed": false,
          "internalType": "uint256[]",
          "name": "ids",
          "type": "uint256[]"
        },
        {
          "indexed": false,
          "internalType": "uint256[]",
          "name": "values",
          "type": "uint256[]"
        }
      ],
      "name": "TransferBatch",
      "type": "event"
    },
    {
      "anonymous": false,
      "inputs": [
        {
          "indexed": true,
          "internalType": "address",
          "name": "operator",
          "type": "address"
        },
        {
          "indexed": true,
          "internalType": "address",
          "name": "from",
          "type": "address"
        },
        {
          "indexed": true,
          "internalType": "address",
          "name": "to",
          "type": "address"
        },
        {
          "indexed": false,
          "internalType": "uint256",
          "name": "id",
          "type": "uint256"
        },
        {
          "indexed": false,
          "internalType": "uint256",
          "name": "value",
          "type": "uint256"
        }
      ],
      "name": "TransferSingle",
      "type": "event"
    },
    {
      "anonymous": false,
      "inputs": [
        {
          "indexed": false,
          "internalType": "string",
          "name": "value",
          "type": "string"
        },
        {
          "indexed": true,
          "internalType": "uint256",
          "name": "id",
          "type": "uint256"
        }
      ],
      "name": "URI",
      "type": "event"
    },
    {
      "inputs": [
        {
          "internalType": "address",
          "name": "account",
          "type": "address"
        },
        {
          "internalType": "uint256",
          "name": "id",
          "type": "uint256"
        }
      ],
      "name": "balanceOf",
      "outputs": [
        {
          "internalType": "uint256",
          "name": "",
          "type": "uint256"
        }
      ],
      "stateMutability": "view",
      "type": "function",
      "constant": true
    },
    {
      "inputs": [
        {
          "internalType": "address[]",
          "name": "accounts",
          "type": "address[]"
        },
        {
          "internalType": "uint256[]",
          "name": "ids",
          "type": "uint256[]"
        }
      ],
      "name": "balanceOfBatch",
      "outputs": [
        {
          "internalType": "uint256[]",
          "name": "",
          "type": "uint256[]"
        }
      ],
      "stateMutability": "view",
      "type": "function",
      "constant": true
    },
    {
      "inputs": [
        {
          "internalType": "address",
          "name": "account",
          "type": "address"
        },
        {
          "internalType": "address",
          "name": "operator",
          "type": "address"
        }
      ],
      "name": "isApprovedForAll",
      "outputs": [
        {
          "internalType": "bool",
          "name": "",
          "type": "bool"
        }
      ],
      "stateMutability": "view",
      "type": "function",
      "constant": true
    },
    {
      "inputs": [],
      "name": "owner",
      "outputs": [
        {
          "internalType": "address",
          "name": "",
          "type": "address"
        }
      ],
      "stateMutability": "view",
      "type": "function",
      "constant": true
    },
    {
      "inputs": [],
      "name": "renounceOwnership",
      "outputs": [],
      "stateMutability": "nonpayable",
      "type": "function"
    },
    {
      "inputs": [
        {
          "internalType": "address",
          "name": "from",
          "type": "address"
        },
        {
          "internalType": "address",
          "name": "to",
          "type": "address"
        },
        {
          "internalType": "uint256[]",
          "name": "ids",
          "type": "uint256[]"
        },
        {
          "internalType": "uint256[]",
          "name": "amounts",
          "type": "uint256[]"
        },
        {
          "internalType": "bytes",
          "name": "data",
          "type": "bytes"
        }
      ],
      "name": "safeBatchTransferFrom",
      "outputs": [],
      "stateMutability": "nonpayable",
      "type": "function"
    },
    {
      "inputs": [
        {
          "internalType": "address",
          "name": "from",
          "type": "address"
        },
        {
          "internalType": "address",
          "name": "to",
          "type": "address"
        },
        {
          "internalType": "uint256",
          "name": "id",
          "type": "uint256"
        },
        {
          "internalType": "uint256",
          "name": "amount",
          "type": "uint256"
        },
        {
          "internalType": "bytes",
          "name": "data",
          "type": "bytes"
        }
      ],
      "name": "safeTransferFrom",
      "outputs": [],
      "stateMutability": "nonpayable",
      "type": "function"
    },
    {
      "inputs": [
        {
          "internalType": "address",
          "name": "operator",
          "type": "address"
        },
        {
          "internalType": "bool",
          "name": "approved",
          "type": "bool"
        }
      ],
      "name": "setApprovalForAll",
      "outputs": [],
      "stateMutability": "nonpayable",
      "type": "function"
    },
    {
      "inputs": [
        {
          "internalType": "bytes4",
          "name": "interfaceId",
          "type": "bytes4"
        }
      ],
      "name": "supportsInterface",
      "outputs": [
        {
          "internalType": "bool",
          "name": "",
          "type": "bool"
        }
      ],
      "stateMutability": "view",
      "type": "function",
      "constant": true
    },
    {
      "inputs": [],
      "name": "totalPlans",
      "outputs": [
        {
          "internalType": "uint256",
          "name": "",
          "type": "uint256"
        }
      ],
      "stateMutability": "view",
      "type": "function",
      "constant": true
    },
    {
      "inputs": [
        {
          "internalType": "address",
          "name": "newOwner",
          "type": "address"
        }
      ],
      "name": "transferOwnership",
      "outputs": [],
      "stateMutability": "nonpayable",
      "type": "function"
    },
    {
      "inputs": [
        {
          "internalType": "uint256",
          "name": "",
          "type": "uint256"
        }
      ],
      "name": "uri",
      "outputs": [
        {
          "internalType": "string",
          "name": "",
          "type": "string"
        }
      ],
      "stateMutability": "view",
      "type": "function",
      "constant": true
    },
    {
      "inputs": [
        {
          "internalType": "string",
          "name": "uri",
          "type": "string"
        }
      ],
      "name": "setURI",
      "outputs": [],
      "stateMutability": "nonpayable",
      "type": "function"
    },
    {
      "inputs": [
        {
          "internalType": "string",
          "name": "_name",
          "type": "string"
        },
        {
          "internalType": "string",
          "name": "uri",
          "type": "string"
        },
        {
          "internalType": "uint256",
          "name": "price",
          "type": "uint256"
        },
        {
          "internalType": "uint256",
          "name": "time",
          "type": "uint256"
        }
      ],
      "name": "addPlan",
      "outputs": [],
      "stateMutability": "nonpayable",
      "type": "function"
    },
    {
      "inputs": [
        {
          "internalType": "uint256",
          "name": "id",
          "type": "uint256"
        },
        {
          "internalType": "string",
          "name": "_name",
          "type": "string"
        },
        {
          "internalType": "string",
          "name": "uri",
          "type": "string"
        },
        {
          "internalType": "uint256",
          "name": "price",
          "type": "uint256"
        },
        {
          "internalType": "uint256",
          "name": "time",
          "type": "uint256"
        }
      ],
      "name": "updatePlan",
      "outputs": [],
      "stateMutability": "nonpayable",
      "type": "function"
    },
    {
      "inputs": [
        {
          "internalType": "uint256",
          "name": "planId",
          "type": "uint256"
        }
      ],
      "name": "subscribe",
      "outputs": [],
      "stateMutability": "payable",
      "type": "function",
      "payable": true
    },
    {
      "inputs": [
        {
          "internalType": "address",
          "name": "user",
          "type": "address"
        }
      ],
      "name": "currentPlan",
      "outputs": [
        {
          "internalType": "uint256",
          "name": "",
          "type": "uint256"
        }
      ],
      "stateMutability": "view",
      "type": "function",
      "constant": true
    },
    {
      "inputs": [
        {
          "internalType": "uint256",
          "name": "id",
          "type": "uint256"
        }
      ],
      "name": "tokenURI",
      "outputs": [
        {
          "internalType": "string",
          "name": "",
          "type": "string"
        }
      ],
      "stateMutability": "view",
      "type": "function",
      "constant": true
    },
    {
      "inputs": [
        {
          "internalType": "uint256",
          "name": "id",
          "type": "uint256"
        }
      ],
      "name": "tokenSupply",
      "outputs": [
        {
          "internalType": "uint256",
          "name": "",
          "type": "uint256"
        }
      ],
      "stateMutability": "view",
      "type": "function",
      "constant": true
    },
    {
      "inputs": [
        {
          "internalType": "uint256",
          "name": "id",
          "type": "uint256"
        }
      ],
      "name": "tokenPrice",
      "outputs": [
        {
          "internalType": "uint256",
          "name": "",
          "type": "uint256"
        }
      ],
      "stateMutability": "view",
      "type": "function",
      "constant": true
    },
    {
      "inputs": [
        {
          "internalType": "uint256",
          "name": "id",
          "type": "uint256"
        }
      ],
      "name": "tokenTime",
      "outputs": [
        {
          "internalType": "uint256",
          "name": "",
          "type": "uint256"
        }
      ],
      "stateMutability": "view",
      "type": "function",
      "constant": true
    },
    {
      "inputs": [],
      "name": "totalSupply",
      "outputs": [
        {
          "internalType": "uint256",
          "name": "",
          "type": "uint256"
        }
      ],
      "stateMutability": "view",
      "type": "function",
      "constant": true
    },
    {
      "inputs": [],
      "name": "balance",
      "outputs": [
        {
          "internalType": "uint256",
          "name": "",
          "type": "uint256"
        }
      ],
      "stateMutability": "view",
      "type": "function",
      "constant": true
    },
    {
      "inputs": [
        {
          "internalType": "uint256",
          "name": "amount",
          "type": "uint256"
        }
      ],
      "name": "withdraw",
      "outputs": [],
      "stateMutability": "nonpayable",
      "type": "function"
    }
  ],
  "bytecode": "0x60806040523480156200001157600080fd5b5060405162004db738038062004db78339818101604052810190620000379190620004b1565b806200004981620000a560201b60201c565b506200006a6200005e620000c160201b60201c565b620000c960201b60201c565b6200009c60405180606001604052806029815260200162004d8e602991398484846200018f60201b620016b01760201c565b50505062000695565b8060029080519060200190620000bd92919062000264565b5050565b600033905090565b6000600360009054906101000a900473ffffffffffffffffffffffffffffffffffffffff16905081600360006101000a81548173ffffffffffffffffffffffffffffffffffffffff021916908373ffffffffffffffffffffffffffffffffffffffff1602179055508173ffffffffffffffffffffffffffffffffffffffff168173ffffffffffffffffffffffffffffffffffffffff167f8be0079c531659141344cd1fd0a4f28419497f9722a3daafe3b4186f6b6457e060405160405180910390a35050565b6200023584848484604051602401620001ac9493929190620005c7565b6040516020818303038152906040527fde68f20a000000000000000000000000000000000000000000000000000000007bffffffffffffffffffffffffffffffffffffffffffffffffffffffff19166020820180517bffffffffffffffffffffffffffffffffffffffffffffffffffffffff83818316178352505050506200023b60201b60201c565b50505050565b60008151905060006a636f6e736f6c652e6c6f679050602083016000808483855afa5050505050565b82805462000272906200065f565b90600052602060002090601f016020900481019282620002965760008555620002e2565b82601f10620002b157805160ff1916838001178555620002e2565b82800160010185558215620002e2579182015b82811115620002e1578251825591602001919060010190620002c4565b5b509050620002f19190620002f5565b5090565b5b8082111562000310576000816000905550600101620002f6565b5090565b6000604051905090565b600080fd5b600080fd5b600080fd5b600080fd5b6000601f19601f8301169050919050565b7f4e487b7100000000000000000000000000000000000000000000000000000000600052604160045260246000fd5b6200037d8262000332565b810181811067ffffffffffffffff821117156200039f576200039e62000343565b5b80604052505050565b6000620003b462000314565b9050620003c2828262000372565b919050565b600067ffffffffffffffff821115620003e557620003e462000343565b5b620003f08262000332565b9050602081019050919050565b60005b838110156200041d57808201518184015260208101905062000400565b838111156200042d576000848401525b50505050565b60006200044a6200044484620003c7565b620003a8565b9050828152602081018484840111156200046957620004686200032d565b5b62000476848285620003fd565b509392505050565b600082601f83011262000496576200049562000328565b5b8151620004a884826020860162000433565b91505092915050565b600080600060608486031215620004cd57620004cc6200031e565b5b600084015167ffffffffffffffff811115620004ee57620004ed62000323565b5b620004fc868287016200047e565b935050602084015167ffffffffffffffff81111562000520576200051f62000323565b5b6200052e868287016200047e565b925050604084015167ffffffffffffffff81111562000552576200055162000323565b5b62000560868287016200047e565b9150509250925092565b600081519050919050565b600082825260208201905092915050565b600062000593826200056a565b6200059f818562000575565b9350620005b1818560208601620003fd565b620005bc8162000332565b840191505092915050565b60006080820190508181036000830152620005e3818762000586565b90508181036020830152620005f9818662000586565b905081810360408301526200060f818562000586565b9050818103606083015262000625818462000586565b905095945050505050565b7f4e487b7100000000000000000000000000000000000000000000000000000000600052602260045260246000fd5b600060028204905060018216806200067857607f821691505b602082108114156200068f576200068e62000630565b5b50919050565b6146e980620006a56000396000f3fe60806040526004361061014a5760003560e01c8063715018a6116100b6578063c87b56dd1161006f578063c87b56dd146104a6578063d4ddce8a146104e3578063e985e9c514610520578063f242432a1461055d578063f2fde38b14610586578063fb649156146105af5761014a565b8063715018a6146103965780638da5cb5b146103ad578063981013c7146103d8578063a22cb46514610415578063a87a730e1461043e578063b69ef8a81461047b5761014a565b80632693ebf2116101085780632693ebf2146102765780632a6d1aa4146102b35780632e1a7d4d146102de5780632eb2c2d6146103075780634e1273f41461033057806367196e0b1461036d5761014a565b8062fdd58e1461014f57806301ffc9a71461018c57806302fe5305146101c95780630e89341c146101f25780630f574ba71461022f57806318160ddd1461024b575b600080fd5b34801561015b57600080fd5b5061017660048036038101906101719190612c41565b6105d8565b6040516101839190612c90565b60405180910390f35b34801561019857600080fd5b506101b360048036038101906101ae9190612d03565b6106a1565b6040516101c09190612d4b565b60405180910390f35b3480156101d557600080fd5b506101f060048036038101906101eb9190612eac565b610783565b005b3480156101fe57600080fd5b5061021960048036038101906102149190612ef5565b610797565b6040516102269190612faa565b60405180910390f35b61024960048036038101906102449190612ef5565b61082b565b005b34801561025757600080fd5b50610260610c20565b60405161026d9190612c90565b60405180910390f35b34801561028257600080fd5b5061029d60048036038101906102989190612ef5565b610c2a565b6040516102aa9190612c90565b60405180910390f35b3480156102bf57600080fd5b506102c8610c9d565b6040516102d59190612c90565b60405180910390f35b3480156102ea57600080fd5b5061030560048036038101906103009190612ef5565b610ca3565b005b34801561031357600080fd5b5061032e60048036038101906103299190613135565b610d62565b005b34801561033c57600080fd5b50610357600480360381019061035291906132c7565b610e03565b60405161036491906133fd565b60405180910390f35b34801561037957600080fd5b50610394600480360381019061038f919061341f565b610f1c565b005b3480156103a257600080fd5b506103ab611060565b005b3480156103b957600080fd5b506103c2611074565b6040516103cf91906134cd565b60405180910390f35b3480156103e457600080fd5b506103ff60048036038101906103fa91906134e8565b61109e565b60405161040c9190612c90565b60405180910390f35b34801561042157600080fd5b5061043c60048036038101906104379190613541565b611236565b005b34801561044a57600080fd5b5061046560048036038101906104609190612ef5565b61124c565b6040516104729190612c90565b60405180910390f35b34801561048757600080fd5b506104906112bf565b60405161049d9190612c90565b60405180910390f35b3480156104b257600080fd5b506104cd60048036038101906104c89190612ef5565b6112cf565b6040516104da9190612faa565b60405180910390f35b3480156104ef57600080fd5b5061050a60048036038101906105059190612ef5565b6113ca565b6040516105179190612c90565b60405180910390f35b34801561052c57600080fd5b5061054760048036038101906105429190613581565b61143d565b6040516105549190612d4b565b60405180910390f35b34801561056957600080fd5b50610584600480360381019061057f91906135c1565b6114d1565b005b34801561059257600080fd5b506105ad60048036038101906105a891906134e8565b611572565b005b3480156105bb57600080fd5b506105d660048036038101906105d19190613658565b6115f6565b005b60008073ffffffffffffffffffffffffffffffffffffffff168373ffffffffffffffffffffffffffffffffffffffff161415610649576040517f08c379a00000000000000000000000000000000000000000000000000000000081526004016106409061377d565b60405180910390fd5b60008083815260200190815260200160002060008473ffffffffffffffffffffffffffffffffffffffff1673ffffffffffffffffffffffffffffffffffffffff16815260200190815260200160002054905092915050565b60007fd9b67a26000000000000000000000000000000000000000000000000000000007bffffffffffffffffffffffffffffffffffffffffffffffffffffffff1916827bffffffffffffffffffffffffffffffffffffffffffffffffffffffff1916148061076c57507f0e89341c000000000000000000000000000000000000000000000000000000007bffffffffffffffffffffffffffffffffffffffffffffffffffffffff1916827bffffffffffffffffffffffffffffffffffffffffffffffffffffffff1916145b8061077c575061077b82611752565b5b9050919050565b61078b6117bc565b6107948161183a565b50565b6060600280546107a6906137cc565b80601f01602080910402602001604051908101604052809291908181526020018280546107d2906137cc565b801561081f5780601f106107f45761010080835404028352916020019161081f565b820191906000526020600020905b81548152906001019060200180831161080257829003601f168201915b50505050509050919050565b80600654811115801561083e5750600081115b61087d576040517f08c379a00000000000000000000000000000000000000000000000000000000081526004016108749061384a565b60405180910390fd5b6108a260405180606001604052806021815260200161466f6021913983600654611854565b600115156108af836118f3565b1515146108f1576040517f08c379a00000000000000000000000000000000000000000000000000000000081526004016108e8906138dc565b60405180910390fd5b60046000838152602001908152602001600020600301543414610949576040517f08c379a00000000000000000000000000000000000000000000000000000000081526004016109409061396e565b60405180910390fd5b6001600460008481526020019081526020016000206002015461096c91906139bd565b6004600084815260200190815260200160002060020181905550604051806040016040528083815260200142815250600560003373ffffffffffffffffffffffffffffffffffffffff1673ffffffffffffffffffffffffffffffffffffffff1681526020019081526020016000206000820151816000015560208201518160010155905050610a8933600560003373ffffffffffffffffffffffffffffffffffffffff1673ffffffffffffffffffffffffffffffffffffffff16815260200190815260200160002060000154610a8433600560003373ffffffffffffffffffffffffffffffffffffffff1673ffffffffffffffffffffffffffffffffffffffff168152602001908152602001600020600001546105d8565b6119cd565b610ad533600560003373ffffffffffffffffffffffffffffffffffffffff1673ffffffffffffffffffffffffffffffffffffffff168152602001908152602001600020600001546105d8565b60046000600560003373ffffffffffffffffffffffffffffffffffffffff1673ffffffffffffffffffffffffffffffffffffffff16815260200190815260200160002060000154815260200190815260200160002060020154610b389190613a13565b60046000600560003373ffffffffffffffffffffffffffffffffffffffff1673ffffffffffffffffffffffffffffffffffffffff16815260200190815260200160002060000154815260200190815260200160002060020181905550610bb03383600160405180602001604052806000815250611c14565b3373ffffffffffffffffffffffffffffffffffffffff166108fc349081150290604051600060405180830381858888f19350505050158015610bf6573d6000803e3d6000fd5b50610c1c60405180606001604052806021815260200161466f6021913983600654611854565b5050565b6000600654905090565b6000816006548111158015610c3f5750600081115b610c7e576040517f08c379a0000000000000000000000000000000000000000000000000000000008152600401610c759061384a565b60405180910390fd5b6004600084815260200190815260200160002060020154915050919050565b60065481565b610cab6117bc565b6000610cb5611074565b73ffffffffffffffffffffffffffffffffffffffff1682604051610cd890613a78565b60006040518083038185875af1925050503d8060008114610d15576040519150601f19603f3d011682016040523d82523d6000602084013e610d1a565b606091505b5050905080610d5e576040517f08c379a0000000000000000000000000000000000000000000000000000000008152600401610d5590613ad9565b60405180910390fd5b5050565b610d6a611dc5565b73ffffffffffffffffffffffffffffffffffffffff168573ffffffffffffffffffffffffffffffffffffffff161480610db05750610daf85610daa611dc5565b61143d565b5b610def576040517f08c379a0000000000000000000000000000000000000000000000000000000008152600401610de690613b6b565b60405180910390fd5b610dfc8585858585611dcd565b5050505050565b60608151835114610e49576040517f08c379a0000000000000000000000000000000000000000000000000000000008152600401610e4090613bfd565b60405180910390fd5b6000835167ffffffffffffffff811115610e6657610e65612d81565b5b604051908082528060200260200182016040528015610e945781602001602082028036833780820191505090505b50905060005b8451811015610f1157610ee1858281518110610eb957610eb8613c1d565b5b6020026020010151858381518110610ed457610ed3613c1d565b5b60200260200101516105d8565b828281518110610ef457610ef3613c1d565b5b60200260200101818152505080610f0a90613c4c565b9050610e9a565b508091505092915050565b610f246117bc565b610f656040518060400160405280601081526020017f746f74616c506c616e7320697320256f000000000000000000000000000000008152506006546120ef565b6001600654610f7491906139bd565b600681905550600060065490506040518060a001604052808681526020018581526020016000815260200184815260200183815250600460008381526020019081526020016000206000820151816000019080519060200190610fd8929190612af6565b506020820151816001019080519060200190610ff5929190612af6565b506040820151816002015560608201518160030155608082015181600401559050506110596040518060400160405280601d81526020017f746f74616c506c616e7320697320256f20616e6420696420697320256f00000081525060065483611854565b5050505050565b6110686117bc565b611072600061218b565b565b6000600360009054906101000a900473ffffffffffffffffffffffffffffffffffffffff16905090565b600061110560405180606001604052806024815260200161469060249139600560003373ffffffffffffffffffffffffffffffffffffffff1673ffffffffffffffffffffffffffffffffffffffff1681526020019081526020016000206001015442611854565b60046000600560003373ffffffffffffffffffffffffffffffffffffffff1673ffffffffffffffffffffffffffffffffffffffff16815260200190815260200160002060000154815260200190815260200160002060040154600560003373ffffffffffffffffffffffffffffffffffffffff1673ffffffffffffffffffffffffffffffffffffffff16815260200190815260200160002060010154426111ac9190613a13565b106111ec576040517f08c379a00000000000000000000000000000000000000000000000000000000081526004016111e390613ce1565b60405180910390fd5b600560008373ffffffffffffffffffffffffffffffffffffffff1673ffffffffffffffffffffffffffffffffffffffff168152602001908152602001600020600001549050919050565b611248611241611dc5565b8383612251565b5050565b60008160065481111580156112615750600081115b6112a0576040517f08c379a00000000000000000000000000000000000000000000000000000000081526004016112979061384a565b60405180910390fd5b6004600084815260200190815260200160002060040154915050919050565b60006112c96117bc565b47905090565b60608160065481111580156112e45750600081115b611323576040517f08c379a000000000000000000000000000000000000000000000000000000000815260040161131a9061384a565b60405180910390fd5b600460008481526020019081526020016000206001018054611344906137cc565b80601f0160208091040260200160405190810160405280929190818152602001828054611370906137cc565b80156113bd5780601f10611392576101008083540402835291602001916113bd565b820191906000526020600020905b8154815290600101906020018083116113a057829003601f168201915b5050505050915050919050565b60008160065481111580156113df5750600081115b61141e576040517f08c379a00000000000000000000000000000000000000000000000000000000081526004016114159061384a565b60405180910390fd5b6004600084815260200190815260200160002060030154915050919050565b6000600160008473ffffffffffffffffffffffffffffffffffffffff1673ffffffffffffffffffffffffffffffffffffffff16815260200190815260200160002060008373ffffffffffffffffffffffffffffffffffffffff1673ffffffffffffffffffffffffffffffffffffffff16815260200190815260200160002060009054906101000a900460ff16905092915050565b6114d9611dc5565b73ffffffffffffffffffffffffffffffffffffffff168573ffffffffffffffffffffffffffffffffffffffff16148061151f575061151e85611519611dc5565b61143d565b5b61155e576040517f08c379a000000000000000000000000000000000000000000000000000000000815260040161155590613b6b565b60405180910390fd5b61156b85858585856123be565b5050505050565b61157a6117bc565b600073ffffffffffffffffffffffffffffffffffffffff168173ffffffffffffffffffffffffffffffffffffffff1614156115ea576040517f08c379a00000000000000000000000000000000000000000000000000000000081526004016115e190613d73565b60405180910390fd5b6115f38161218b565b50565b6115fe6117bc565b6040518060a00160405280858152602001848152602001600460008881526020019081526020016000206002015481526020018381526020018281525060046000878152602001908152602001600020600082015181600001908051906020019061166a929190612af6565b506020820151816001019080519060200190611687929190612af6565b506040820151816002015560608201518160030155608082015181600401559050505050505050565b61174c848484846040516024016116ca9493929190613d93565b6040516020818303038152906040527fde68f20a000000000000000000000000000000000000000000000000000000007bffffffffffffffffffffffffffffffffffffffffffffffffffffffff19166020820180517bffffffffffffffffffffffffffffffffffffffffffffffffffffffff838183161783525050505061265a565b50505050565b60007f01ffc9a7000000000000000000000000000000000000000000000000000000007bffffffffffffffffffffffffffffffffffffffffffffffffffffffff1916827bffffffffffffffffffffffffffffffffffffffffffffffffffffffff1916149050919050565b6117c4611dc5565b73ffffffffffffffffffffffffffffffffffffffff166117e2611074565b73ffffffffffffffffffffffffffffffffffffffff1614611838576040517f08c379a000000000000000000000000000000000000000000000000000000000815260040161182f90613e40565b60405180910390fd5b565b8060029080519060200190611850929190612af6565b5050565b6118ee83838360405160240161186c93929190613e60565b6040516020818303038152906040527fca47c4eb000000000000000000000000000000000000000000000000000000007bffffffffffffffffffffffffffffffffffffffffffffffffffffffff19166020820180517bffffffffffffffffffffffffffffffffffffffffffffffffffffffff838183161783525050505061265a565b505050565b600081600560003373ffffffffffffffffffffffffffffffffffffffff1673ffffffffffffffffffffffffffffffffffffffff1681526020019081526020016000206000015414156119c35760046000838152602001908152602001600020600401546119ab600560003373ffffffffffffffffffffffffffffffffffffffff1673ffffffffffffffffffffffffffffffffffffffff168152602001908152602001600020600101544261268390919063ffffffff16565b10156119ba57600090506119c8565b600190506119c8565b600190505b919050565b600073ffffffffffffffffffffffffffffffffffffffff168373ffffffffffffffffffffffffffffffffffffffff161415611a3d576040517f08c379a0000000000000000000000000000000000000000000000000000000008152600401611a3490613f10565b60405180910390fd5b6000611a47611dc5565b90506000611a5484612699565b90506000611a6184612699565b9050611a8183876000858560405180602001604052806000815250612713565b600080600087815260200190815260200160002060008873ffffffffffffffffffffffffffffffffffffffff1673ffffffffffffffffffffffffffffffffffffffff16815260200190815260200160002054905084811015611b18576040517f08c379a0000000000000000000000000000000000000000000000000000000008152600401611b0f90613fa2565b60405180910390fd5b84810360008088815260200190815260200160002060008973ffffffffffffffffffffffffffffffffffffffff1673ffffffffffffffffffffffffffffffffffffffff16815260200190815260200160002081905550600073ffffffffffffffffffffffffffffffffffffffff168773ffffffffffffffffffffffffffffffffffffffff168573ffffffffffffffffffffffffffffffffffffffff167fc3d58168c5ae7397731d063d5bbf3d657854427343f4c083240f7aacaa2d0f628989604051611be5929190613fc2565b60405180910390a4611c0b8488600086866040518060200160405280600081525061271b565b50505050505050565b600073ffffffffffffffffffffffffffffffffffffffff168473ffffffffffffffffffffffffffffffffffffffff161415611c84576040517f08c379a0000000000000000000000000000000000000000000000000000000008152600401611c7b9061405d565b60405180910390fd5b6000611c8e611dc5565b90506000611c9b85612699565b90506000611ca885612699565b9050611cb983600089858589612713565b8460008088815260200190815260200160002060008973ffffffffffffffffffffffffffffffffffffffff1673ffffffffffffffffffffffffffffffffffffffff1681526020019081526020016000206000828254611d1891906139bd565b925050819055508673ffffffffffffffffffffffffffffffffffffffff16600073ffffffffffffffffffffffffffffffffffffffff168473ffffffffffffffffffffffffffffffffffffffff167fc3d58168c5ae7397731d063d5bbf3d657854427343f4c083240f7aacaa2d0f628989604051611d96929190613fc2565b60405180910390a4611dad8360008985858961271b565b611dbc83600089898989612723565b50505050505050565b600033905090565b8151835114611e11576040517f08c379a0000000000000000000000000000000000000000000000000000000008152600401611e08906140ef565b60405180910390fd5b600073ffffffffffffffffffffffffffffffffffffffff168473ffffffffffffffffffffffffffffffffffffffff161415611e81576040517f08c379a0000000000000000000000000000000000000000000000000000000008152600401611e7890614181565b60405180910390fd5b6000611e8b611dc5565b9050611e9b818787878787612713565b60005b845181101561204c576000858281518110611ebc57611ebb613c1d565b5b602002602001015190506000858381518110611edb57611eda613c1d565b5b60200260200101519050600080600084815260200190815260200160002060008b73ffffffffffffffffffffffffffffffffffffffff1673ffffffffffffffffffffffffffffffffffffffff16815260200190815260200160002054905081811015611f7c576040517f08c379a0000000000000000000000000000000000000000000000000000000008152600401611f7390614213565b60405180910390fd5b81810360008085815260200190815260200160002060008c73ffffffffffffffffffffffffffffffffffffffff1673ffffffffffffffffffffffffffffffffffffffff168152602001908152602001600020819055508160008085815260200190815260200160002060008b73ffffffffffffffffffffffffffffffffffffffff1673ffffffffffffffffffffffffffffffffffffffff168152602001908152602001600020600082825461203191906139bd565b925050819055505050508061204590613c4c565b9050611e9e565b508473ffffffffffffffffffffffffffffffffffffffff168673ffffffffffffffffffffffffffffffffffffffff168273ffffffffffffffffffffffffffffffffffffffff167f4a39dc06d4c0dbc64b70af90fd698a233a518aa5d07e595d983b8c0526c8f7fb87876040516120c3929190614233565b60405180910390a46120d981878787878761271b565b6120e78187878787876128fb565b505050505050565b612187828260405160240161210592919061426a565b6040516020818303038152906040527fb60e72cc000000000000000000000000000000000000000000000000000000007bffffffffffffffffffffffffffffffffffffffffffffffffffffffff19166020820180517bffffffffffffffffffffffffffffffffffffffffffffffffffffffff838183161783525050505061265a565b5050565b6000600360009054906101000a900473ffffffffffffffffffffffffffffffffffffffff16905081600360006101000a81548173ffffffffffffffffffffffffffffffffffffffff021916908373ffffffffffffffffffffffffffffffffffffffff1602179055508173ffffffffffffffffffffffffffffffffffffffff168173ffffffffffffffffffffffffffffffffffffffff167f8be0079c531659141344cd1fd0a4f28419497f9722a3daafe3b4186f6b6457e060405160405180910390a35050565b8173ffffffffffffffffffffffffffffffffffffffff168373ffffffffffffffffffffffffffffffffffffffff1614156122c0576040517f08c379a00000000000000000000000000000000000000000000000000000000081526004016122b79061430c565b60405180910390fd5b80600160008573ffffffffffffffffffffffffffffffffffffffff1673ffffffffffffffffffffffffffffffffffffffff16815260200190815260200160002060008473ffffffffffffffffffffffffffffffffffffffff1673ffffffffffffffffffffffffffffffffffffffff16815260200190815260200160002060006101000a81548160ff0219169083151502179055508173ffffffffffffffffffffffffffffffffffffffff168373ffffffffffffffffffffffffffffffffffffffff167f17307eab39ab6107e8899845ad3d59bd9653f200f220920489ca2b5937696c31836040516123b19190612d4b565b60405180910390a3505050565b600073ffffffffffffffffffffffffffffffffffffffff168473ffffffffffffffffffffffffffffffffffffffff16141561242e576040517f08c379a000000000000000000000000000000000000000000000000000000000815260040161242590614181565b60405180910390fd5b6000612438611dc5565b9050600061244585612699565b9050600061245285612699565b9050612462838989858589612713565b600080600088815260200190815260200160002060008a73ffffffffffffffffffffffffffffffffffffffff1673ffffffffffffffffffffffffffffffffffffffff168152602001908152602001600020549050858110156124f9576040517f08c379a00000000000000000000000000000000000000000000000000000000081526004016124f090614213565b60405180910390fd5b85810360008089815260200190815260200160002060008b73ffffffffffffffffffffffffffffffffffffffff1673ffffffffffffffffffffffffffffffffffffffff168152602001908152602001600020819055508560008089815260200190815260200160002060008a73ffffffffffffffffffffffffffffffffffffffff1673ffffffffffffffffffffffffffffffffffffffff16815260200190815260200160002060008282546125ae91906139bd565b925050819055508773ffffffffffffffffffffffffffffffffffffffff168973ffffffffffffffffffffffffffffffffffffffff168573ffffffffffffffffffffffffffffffffffffffff167fc3d58168c5ae7397731d063d5bbf3d657854427343f4c083240f7aacaa2d0f628a8a60405161262b929190613fc2565b60405180910390a4612641848a8a86868a61271b565b61264f848a8a8a8a8a612723565b505050505050505050565b60008151905060006a636f6e736f6c652e6c6f679050602083016000808483855afa5050505050565b600081836126919190613a13565b905092915050565b60606000600167ffffffffffffffff8111156126b8576126b7612d81565b5b6040519080825280602002602001820160405280156126e65781602001602082028036833780820191505090505b50905082816000815181106126fe576126fd613c1d565b5b60200260200101818152505080915050919050565b505050505050565b505050505050565b6127428473ffffffffffffffffffffffffffffffffffffffff16612ad3565b156128f3578373ffffffffffffffffffffffffffffffffffffffff1663f23a6e6187878686866040518663ffffffff1660e01b8152600401612788959493929190614381565b6020604051808303816000875af19250505080156127c457506040513d601f19601f820116820180604052508101906127c191906143f0565b60015b61286a576127d061442a565b806308c379a0141561282d57506127e561444c565b806127f0575061282f565b806040517f08c379a00000000000000000000000000000000000000000000000000000000081526004016128249190612faa565b60405180910390fd5b505b6040517f08c379a000000000000000000000000000000000000000000000000000000000815260040161286190614554565b60405180910390fd5b63f23a6e6160e01b7bffffffffffffffffffffffffffffffffffffffffffffffffffffffff1916817bffffffffffffffffffffffffffffffffffffffffffffffffffffffff1916146128f1576040517f08c379a00000000000000000000000000000000000000000000000000000000081526004016128e8906145e6565b60405180910390fd5b505b505050505050565b61291a8473ffffffffffffffffffffffffffffffffffffffff16612ad3565b15612acb578373ffffffffffffffffffffffffffffffffffffffff1663bc197c8187878686866040518663ffffffff1660e01b8152600401612960959493929190614606565b6020604051808303816000875af192505050801561299c57506040513d601f19601f8201168201806040525081019061299991906143f0565b60015b612a42576129a861442a565b806308c379a01415612a0557506129bd61444c565b806129c85750612a07565b806040517f08c379a00000000000000000000000000000000000000000000000000000000081526004016129fc9190612faa565b60405180910390fd5b505b6040517f08c379a0000000000000000000000000000000000000000000000000000000008152600401612a3990614554565b60405180910390fd5b63bc197c8160e01b7bffffffffffffffffffffffffffffffffffffffffffffffffffffffff1916817bffffffffffffffffffffffffffffffffffffffffffffffffffffffff191614612ac9576040517f08c379a0000000000000000000000000000000000000000000000000000000008152600401612ac0906145e6565b60405180910390fd5b505b505050505050565b6000808273ffffffffffffffffffffffffffffffffffffffff163b119050919050565b828054612b02906137cc565b90600052602060002090601f016020900481019282612b245760008555612b6b565b82601f10612b3d57805160ff1916838001178555612b6b565b82800160010185558215612b6b579182015b82811115612b6a578251825591602001919060010190612b4f565b5b509050612b789190612b7c565b5090565b5b80821115612b95576000816000905550600101612b7d565b5090565b6000604051905090565b600080fd5b600080fd5b600073ffffffffffffffffffffffffffffffffffffffff82169050919050565b6000612bd882612bad565b9050919050565b612be881612bcd565b8114612bf357600080fd5b50565b600081359050612c0581612bdf565b92915050565b6000819050919050565b612c1e81612c0b565b8114612c2957600080fd5b50565b600081359050612c3b81612c15565b92915050565b60008060408385031215612c5857612c57612ba3565b5b6000612c6685828601612bf6565b9250506020612c7785828601612c2c565b9150509250929050565b612c8a81612c0b565b82525050565b6000602082019050612ca56000830184612c81565b92915050565b60007fffffffff0000000000000000000000000000000000000000000000000000000082169050919050565b612ce081612cab565b8114612ceb57600080fd5b50565b600081359050612cfd81612cd7565b92915050565b600060208284031215612d1957612d18612ba3565b5b6000612d2784828501612cee565b91505092915050565b60008115159050919050565b612d4581612d30565b82525050565b6000602082019050612d606000830184612d3c565b92915050565b600080fd5b600080fd5b6000601f19601f8301169050919050565b7f4e487b7100000000000000000000000000000000000000000000000000000000600052604160045260246000fd5b612db982612d70565b810181811067ffffffffffffffff82111715612dd857612dd7612d81565b5b80604052505050565b6000612deb612b99565b9050612df78282612db0565b919050565b600067ffffffffffffffff821115612e1757612e16612d81565b5b612e2082612d70565b9050602081019050919050565b82818337600083830152505050565b6000612e4f612e4a84612dfc565b612de1565b905082815260208101848484011115612e6b57612e6a612d6b565b5b612e76848285612e2d565b509392505050565b600082601f830112612e9357612e92612d66565b5b8135612ea3848260208601612e3c565b91505092915050565b600060208284031215612ec257612ec1612ba3565b5b600082013567ffffffffffffffff811115612ee057612edf612ba8565b5b612eec84828501612e7e565b91505092915050565b600060208284031215612f0b57612f0a612ba3565b5b6000612f1984828501612c2c565b91505092915050565b600081519050919050565b600082825260208201905092915050565b60005b83811015612f5c578082015181840152602081019050612f41565b83811115612f6b576000848401525b50505050565b6000612f7c82612f22565b612f868185612f2d565b9350612f96818560208601612f3e565b612f9f81612d70565b840191505092915050565b60006020820190508181036000830152612fc48184612f71565b905092915050565b600067ffffffffffffffff821115612fe757612fe6612d81565b5b602082029050602081019050919050565b600080fd5b600061301061300b84612fcc565b612de1565b9050808382526020820190506020840283018581111561303357613032612ff8565b5b835b8181101561305c57806130488882612c2c565b845260208401935050602081019050613035565b5050509392505050565b600082601f83011261307b5761307a612d66565b5b813561308b848260208601612ffd565b91505092915050565b600067ffffffffffffffff8211156130af576130ae612d81565b5b6130b882612d70565b9050602081019050919050565b60006130d86130d384613094565b612de1565b9050828152602081018484840111156130f4576130f3612d6b565b5b6130ff848285612e2d565b509392505050565b600082601f83011261311c5761311b612d66565b5b813561312c8482602086016130c5565b91505092915050565b600080600080600060a0868803121561315157613150612ba3565b5b600061315f88828901612bf6565b955050602061317088828901612bf6565b945050604086013567ffffffffffffffff81111561319157613190612ba8565b5b61319d88828901613066565b935050606086013567ffffffffffffffff8111156131be576131bd612ba8565b5b6131ca88828901613066565b925050608086013567ffffffffffffffff8111156131eb576131ea612ba8565b5b6131f788828901613107565b9150509295509295909350565b600067ffffffffffffffff82111561321f5761321e612d81565b5b602082029050602081019050919050565b600061324361323e84613204565b612de1565b9050808382526020820190506020840283018581111561326657613265612ff8565b5b835b8181101561328f578061327b8882612bf6565b845260208401935050602081019050613268565b5050509392505050565b600082601f8301126132ae576132ad612d66565b5b81356132be848260208601613230565b91505092915050565b600080604083850312156132de576132dd612ba3565b5b600083013567ffffffffffffffff8111156132fc576132fb612ba8565b5b61330885828601613299565b925050602083013567ffffffffffffffff81111561332957613328612ba8565b5b61333585828601613066565b9150509250929050565b600081519050919050565b600082825260208201905092915050565b6000819050602082019050919050565b61337481612c0b565b82525050565b6000613386838361336b565b60208301905092915050565b6000602082019050919050565b60006133aa8261333f565b6133b4818561334a565b93506133bf8361335b565b8060005b838110156133f05781516133d7888261337a565b97506133e283613392565b9250506001810190506133c3565b5085935050505092915050565b60006020820190508181036000830152613417818461339f565b905092915050565b6000806000806080858703121561343957613438612ba3565b5b600085013567ffffffffffffffff81111561345757613456612ba8565b5b61346387828801612e7e565b945050602085013567ffffffffffffffff81111561348457613483612ba8565b5b61349087828801612e7e565b93505060406134a187828801612c2c565b92505060606134b287828801612c2c565b91505092959194509250565b6134c781612bcd565b82525050565b60006020820190506134e260008301846134be565b92915050565b6000602082840312156134fe576134fd612ba3565b5b600061350c84828501612bf6565b91505092915050565b61351e81612d30565b811461352957600080fd5b50565b60008135905061353b81613515565b92915050565b6000806040838503121561355857613557612ba3565b5b600061356685828601612bf6565b92505060206135778582860161352c565b9150509250929050565b6000806040838503121561359857613597612ba3565b5b60006135a685828601612bf6565b92505060206135b785828601612bf6565b9150509250929050565b600080600080600060a086880312156135dd576135dc612ba3565b5b60006135eb88828901612bf6565b95505060206135fc88828901612bf6565b945050604061360d88828901612c2c565b935050606061361e88828901612c2c565b925050608086013567ffffffffffffffff81111561363f5761363e612ba8565b5b61364b88828901613107565b9150509295509295909350565b600080600080600060a0868803121561367457613673612ba3565b5b600061368288828901612c2c565b955050602086013567ffffffffffffffff8111156136a3576136a2612ba8565b5b6136af88828901612e7e565b945050604086013567ffffffffffffffff8111156136d0576136cf612ba8565b5b6136dc88828901612e7e565b93505060606136ed88828901612c2c565b92505060806136fe88828901612c2c565b9150509295509295909350565b7f455243313135353a2061646472657373207a65726f206973206e6f742061207660008201527f616c6964206f776e657200000000000000000000000000000000000000000000602082015250565b6000613767602a83612f2d565b91506137728261370b565b604082019050919050565b600060208201905081810360008301526137968161375a565b9050919050565b7f4e487b7100000000000000000000000000000000000000000000000000000000600052602260045260246000fd5b600060028204905060018216806137e457607f821691505b602082108114156137f8576137f761379d565b5b50919050565b7f70726f76696465206120636f727265637420706c616e49440000000000000000600082015250565b6000613834601883612f2d565b915061383f826137fe565b602082019050919050565b6000602082019050818103600083015261386381613827565b9050919050565b7f796f75722063757272656e7420706c616e206861736e2774206578706972656460008201527f2079657400000000000000000000000000000000000000000000000000000000602082015250565b60006138c6602483612f2d565b91506138d18261386a565b604082019050919050565b600060208201905081810360008301526138f5816138b9565b9050919050565b7f706c656173652073656e6420636f727265637420616d6f756e74206f6620707260008201527f6963650000000000000000000000000000000000000000000000000000000000602082015250565b6000613958602383612f2d565b9150613963826138fc565b604082019050919050565b600060208201905081810360008301526139878161394b565b9050919050565b7f4e487b7100000000000000000000000000000000000000000000000000000000600052601160045260246000fd5b60006139c882612c0b565b91506139d383612c0b565b9250827fffffffffffffffffffffffffffffffffffffffffffffffffffffffffffffffff03821115613a0857613a0761398e565b5b828201905092915050565b6000613a1e82612c0b565b9150613a2983612c0b565b925082821015613a3c57613a3b61398e565b5b828203905092915050565b600081905092915050565b50565b6000613a62600083613a47565b9150613a6d82613a52565b600082019050919050565b6000613a8382613a55565b9150819050919050565b7f7472616e73666572206661696c65640000000000000000000000000000000000600082015250565b6000613ac3600f83612f2d565b9150613ace82613a8d565b602082019050919050565b60006020820190508181036000830152613af281613ab6565b9050919050565b7f455243313135353a2063616c6c6572206973206e6f7420746f6b656e206f776e60008201527f6572206e6f7220617070726f7665640000000000000000000000000000000000602082015250565b6000613b55602f83612f2d565b9150613b6082613af9565b604082019050919050565b60006020820190508181036000830152613b8481613b48565b9050919050565b7f455243313135353a206163636f756e747320616e6420696473206c656e67746860008201527f206d69736d617463680000000000000000000000000000000000000000000000602082015250565b6000613be7602983612f2d565b9150613bf282613b8b565b604082019050919050565b60006020820190508181036000830152613c1681613bda565b9050919050565b7f4e487b7100000000000000000000000000000000000000000000000000000000600052603260045260246000fd5b6000613c5782612c0b565b91507fffffffffffffffffffffffffffffffffffffffffffffffffffffffffffffffff821415613c8a57613c8961398e565b5b600182019050919050565b7f64656f736e2774206861766520616e792061637469766520706c616e00000000600082015250565b6000613ccb601c83612f2d565b9150613cd682613c95565b602082019050919050565b60006020820190508181036000830152613cfa81613cbe565b9050919050565b7f4f776e61626c653a206e6577206f776e657220697320746865207a65726f206160008201527f6464726573730000000000000000000000000000000000000000000000000000602082015250565b6000613d5d602683612f2d565b9150613d6882613d01565b604082019050919050565b60006020820190508181036000830152613d8c81613d50565b9050919050565b60006080820190508181036000830152613dad8187612f71565b90508181036020830152613dc18186612f71565b90508181036040830152613dd58185612f71565b90508181036060830152613de98184612f71565b905095945050505050565b7f4f776e61626c653a2063616c6c6572206973206e6f7420746865206f776e6572600082015250565b6000613e2a602083612f2d565b9150613e3582613df4565b602082019050919050565b60006020820190508181036000830152613e5981613e1d565b9050919050565b60006060820190508181036000830152613e7a8186612f71565b9050613e896020830185612c81565b613e966040830184612c81565b949350505050565b7f455243313135353a206275726e2066726f6d20746865207a65726f206164647260008201527f6573730000000000000000000000000000000000000000000000000000000000602082015250565b6000613efa602383612f2d565b9150613f0582613e9e565b604082019050919050565b60006020820190508181036000830152613f2981613eed565b9050919050565b7f455243313135353a206275726e20616d6f756e7420657863656564732062616c60008201527f616e636500000000000000000000000000000000000000000000000000000000602082015250565b6000613f8c602483612f2d565b9150613f9782613f30565b604082019050919050565b60006020820190508181036000830152613fbb81613f7f565b9050919050565b6000604082019050613fd76000830185612c81565b613fe46020830184612c81565b9392505050565b7f455243313135353a206d696e7420746f20746865207a65726f2061646472657360008201527f7300000000000000000000000000000000000000000000000000000000000000602082015250565b6000614047602183612f2d565b915061405282613feb565b604082019050919050565b600060208201905081810360008301526140768161403a565b9050919050565b7f455243313135353a2069647320616e6420616d6f756e7473206c656e6774682060008201527f6d69736d61746368000000000000000000000000000000000000000000000000602082015250565b60006140d9602883612f2d565b91506140e48261407d565b604082019050919050565b60006020820190508181036000830152614108816140cc565b9050919050565b7f455243313135353a207472616e7366657220746f20746865207a65726f20616460008201527f6472657373000000000000000000000000000000000000000000000000000000602082015250565b600061416b602583612f2d565b91506141768261410f565b604082019050919050565b6000602082019050818103600083015261419a8161415e565b9050919050565b7f455243313135353a20696e73756666696369656e742062616c616e636520666f60008201527f72207472616e7366657200000000000000000000000000000000000000000000602082015250565b60006141fd602a83612f2d565b9150614208826141a1565b604082019050919050565b6000602082019050818103600083015261422c816141f0565b9050919050565b6000604082019050818103600083015261424d818561339f565b90508181036020830152614261818461339f565b90509392505050565b600060408201905081810360008301526142848185612f71565b90506142936020830184612c81565b9392505050565b7f455243313135353a2073657474696e6720617070726f76616c2073746174757360008201527f20666f722073656c660000000000000000000000000000000000000000000000602082015250565b60006142f6602983612f2d565b91506143018261429a565b604082019050919050565b60006020820190508181036000830152614325816142e9565b9050919050565b600081519050919050565b600082825260208201905092915050565b60006143538261432c565b61435d8185614337565b935061436d818560208601612f3e565b61437681612d70565b840191505092915050565b600060a08201905061439660008301886134be565b6143a360208301876134be565b6143b06040830186612c81565b6143bd6060830185612c81565b81810360808301526143cf8184614348565b90509695505050505050565b6000815190506143ea81612cd7565b92915050565b60006020828403121561440657614405612ba3565b5b6000614414848285016143db565b91505092915050565b60008160e01c9050919050565b600060033d11156144495760046000803e61444660005161441d565b90505b90565b600060443d101561445c576144df565b614464612b99565b60043d036004823e80513d602482011167ffffffffffffffff8211171561448c5750506144df565b808201805167ffffffffffffffff8111156144aa57505050506144df565b80602083010160043d0385018111156144c75750505050506144df565b6144d682602001850186612db0565b82955050505050505b90565b7f455243313135353a207472616e7366657220746f206e6f6e204552433131353560008201527f526563656976657220696d706c656d656e746572000000000000000000000000602082015250565b600061453e603483612f2d565b9150614549826144e2565b604082019050919050565b6000602082019050818103600083015261456d81614531565b9050919050565b7f455243313135353a204552433131353552656365697665722072656a6563746560008201527f6420746f6b656e73000000000000000000000000000000000000000000000000602082015250565b60006145d0602883612f2d565b91506145db82614574565b604082019050919050565b600060208201905081810360008301526145ff816145c3565b9050919050565b600060a08201905061461b60008301886134be565b61462860208301876134be565b818103604083015261463a818661339f565b9050818103606083015261464e818561339f565b905081810360808301526146628184614348565b9050969550505050505056fe706c616e496420697320256f20616e6420746f74616c506c616e7320697320256f7573657220697320256f20616e6420626c6f636b2e74696d657374616d7020697320256fa26469706673582212201102251354589e615c487003792c15da3d039c916e5b22bcd23411d72759434864736f6c634300080b00334e616d6520697320256f20616e642073796d626f6c20697320256f20616e642075726920697320256f",
  "immutableReferences": {},
  "source": "// SPDX-License-Identifier: MIT\r\npragma solidity ^0.8.7;\r\n\r\nimport \"@openzeppelin/contracts/utils/math/SafeMath.sol\";\r\nimport \"@openzeppelin/contracts/token/ERC1155/ERC1155.sol\";\r\nimport \"@openzeppelin/contracts/access/Ownable.sol\";\r\nimport \"hardhat/console.sol\";\r\n\r\ncontract Eshterak is ERC1155, Ownable {\r\n\r\n    using SafeMath for uint256;\r\n\r\n    struct plan {\r\n        string name;\r\n        string uri;\r\n        uint256 subscribers;\r\n        uint256 price;\r\n        uint time;\r\n    }\r\n\r\n    struct subscriber {\r\n        uint256 plan;\r\n        uint256 date;\r\n    }\r\n\r\n    mapping(uint256 => plan) internal plans;\r\n\r\n    mapping(address => subscriber) internal subscribers;\r\n\r\n    uint256 public totalPlans;\r\n\r\n\r\nconstructor(string memory name, string memory symbol, string memory uri) ERC1155(uri) {\r\n    console.log(\"Name is %o and symbol is %o and uri is %o\", name, symbol, uri);\r\n}\r\n\r\n    modifier correctId(uint id) {\r\n        require(id <= totalPlans && id>0, \"provide a correct planID\");\r\n        _;\r\n    }\r\n\r\n    function setURI(string memory uri) external onlyOwner {\r\n        _setURI(uri);\r\n    }\r\n\r\n    function ifExpired(uint id) internal view returns(bool) {\r\n        if(subscribers[msg.sender].plan == id) {\r\n            if((block.timestamp).sub(subscribers[msg.sender].date) < plans[id].time) {\r\n                return false;\r\n            } else {\r\n                return true;\r\n            }\r\n        } else {\r\n            return true;\r\n        }\r\n    }\r\n    \r\n    function addPlan(string memory _name, string memory uri, uint256 price, uint time) external onlyOwner {\r\n        console.log(\"totalPlans is %o\", totalPlans);\r\n        totalPlans = totalPlans + 1;\r\n        uint256 id = totalPlans;\r\n        plans[id] = plan(_name, uri, 0, price, time);\r\n        console.log(\"totalPlans is %o and id is %o\", totalPlans, id);\r\n    }\r\n\r\n    function updatePlan(uint id, string memory _name, string memory uri, uint256 price, uint time) external onlyOwner {\r\n        plans[id] = plan(_name, uri, plans[id].subscribers, price, time);\r\n    }\r\n\r\n    function subscribe(uint256 planId) external correctId(planId) payable {\r\n        console.log(\"planId is %o and totalPlans is %o\", planId, totalPlans);\r\n        require(ifExpired(planId) == true, \"your current plan hasn't expired yet\");\r\n        require(msg.value == plans[planId].price, \"please send correct amount of price\");\r\n        plans[planId].subscribers = plans[planId].subscribers + 1;\r\n        subscribers[msg.sender] = subscriber(planId, block.timestamp);\r\n        _burn(msg.sender, subscribers[msg.sender].plan, balanceOf(msg.sender, subscribers[msg.sender].plan));\r\n        plans[subscribers[msg.sender].plan].subscribers = (plans[subscribers[msg.sender].plan].subscribers) - balanceOf(msg.sender, subscribers[msg.sender].plan);\r\n        _mint(msg.sender, planId, 1, \"\");\r\n        payable(msg.sender).transfer(msg.value);\r\n        console.log(\"planId is %o and totalPlans is %o\", planId, totalPlans);\r\n    }\r\n\r\n\r\n    function currentPlan(address user) public view returns(uint) {\r\n        console.log(\"user is %o and block.timestamp is %o\", subscribers[msg.sender].date, block.timestamp);\r\n        require((block.timestamp - subscribers[msg.sender].date) < plans[subscribers[msg.sender].plan].time, \"deosn't have any active plan\");\r\n        return subscribers[user].plan;\r\n    }\r\n\r\n    function tokenURI(uint id) public correctId(id) view returns(string memory) {\r\n        return plans[id].uri;\r\n    }\r\n\r\n    function tokenSupply(uint id) public correctId(id) view returns(uint) {\r\n        return plans[id].subscribers;\r\n    }\r\n\r\n    function tokenPrice(uint id) public correctId(id) view returns(uint) {\r\n        return plans[id].price;\r\n    }\r\n\r\n    function tokenTime(uint id) public correctId(id) view returns(uint) {\r\n        return plans[id].time;\r\n    }\r\n\r\n\r\n    function totalSupply() public view returns(uint) {\r\n        return totalPlans;\r\n    }\r\n\r\n    function balance() public view onlyOwner returns (uint) {\r\n        return address(this).balance;\r\n    }\r\n\r\n    function withdraw(uint256 amount) external onlyOwner {\r\n        (bool success, ) = payable(owner()).call{value: amount}(\"\");\r\n        require(success, \"transfer failed\");\r\n    }\r\n\r\n}\r\n\r\n",
  "sourcePath": "E:\\dishonored 2\\Blockchain\\Project\\blockchain\\Subscription Dapp\\contracts\\Eshterak.sol",
  "compiler": {
    "name": "solc",
    "version": "0.8.11+commit.d7f03943.Emscripten.clang"
  },
  "schemaVersion": "3.4.4",
  "updatedAt": "2022-10-10T15:01:35.052Z",
  "networkType": "ethereum",
  "devdoc": {
    "kind": "dev",
    "methods": {
      "balanceOf(address,uint256)": {
        "details": "See {IERC1155-balanceOf}. Requirements: - `account` cannot be the zero address."
      },
      "balanceOfBatch(address[],uint256[])": {
        "details": "See {IERC1155-balanceOfBatch}. Requirements: - `accounts` and `ids` must have the same length."
      },
      "isApprovedForAll(address,address)": {
        "details": "See {IERC1155-isApprovedForAll}."
      },
      "owner()": {
        "details": "Returns the address of the current owner."
      },
      "renounceOwnership()": {
        "details": "Leaves the contract without owner. It will not be possible to call `onlyOwner` functions anymore. Can only be called by the current owner. NOTE: Renouncing ownership will leave the contract without an owner, thereby removing any functionality that is only available to the owner."
      },
      "safeBatchTransferFrom(address,address,uint256[],uint256[],bytes)": {
        "details": "See {IERC1155-safeBatchTransferFrom}."
      },
      "safeTransferFrom(address,address,uint256,uint256,bytes)": {
        "details": "See {IERC1155-safeTransferFrom}."
      },
      "setApprovalForAll(address,bool)": {
        "details": "See {IERC1155-setApprovalForAll}."
      },
      "supportsInterface(bytes4)": {
        "details": "See {IERC165-supportsInterface}."
      },
      "transferOwnership(address)": {
        "details": "Transfers ownership of the contract to a new account (`newOwner`). Can only be called by the current owner."
      },
      "uri(uint256)": {
        "details": "See {IERC1155MetadataURI-uri}. This implementation returns the same URI for *all* token types. It relies on the token type ID substitution mechanism https://eips.ethereum.org/EIPS/eip-1155#metadata[defined in the EIP]. Clients calling this function must replace the `\\{id\\}` substring with the actual token type ID."
      }
    },
    "version": 1
  },
  "userdoc": {
    "kind": "user",
    "methods": {},
    "version": 1
  }
}